:020000040000FA
:100000000C9436010C9467010C9467010C94670101
:100010000C9467010C9467010C9467010C946701C0
:100020000C9467010C9467010C9467010C946701B0
:100030000C9467010C94520D0C9467010C946701A9
:100040000C9467010C9467010C9467010C94670190
:100050000C9467010C9467010C9467010C94080DD3
:100060000C9467010C9467010C9467010C94670170
:100070000C9467010C9467010C9467010C94670160
:100080000C9467010C9467010C9467010C94670150
:100090000C9467010C9467010C9467010C94670140
:1000A0000C9467010C9467010C9467010C94670130
:1000B0000C9467010C9467010C9467010C94670120
:1000C0000C9467010C9467010C9467010C94670110
:1000D0000C9467010C9467010C9467010C94670100
:1000E0000C9467010C9491010C9413050C94C701B6
:1000F0000C9479070C94A2010C94D6050C949C01E5
:100100000C94CB140C9495010C947A070C948D01EB
:100110000C94C8010C94A6010C9487010C94D20590
:100120000C94B4010C94BE010C94BA010C94CC0153
:100130000C94B90A0C94AC010C94B0010C94C2015B
:100140000C94DA050C94990100002100240027008A
:100150002A002D00300033000101000004010701D6
:100160000A01000020002300260029002C002F0097
:1001700032000001000003010601090100000A0B22
:1001800002090C0D0E080703040100000000000026
:10019000000000000000000000000000000000005F
:1001A000000000000000000012111000000000001C
:1001B000000000000000000000000000000000003F
:1001C000000001021020200808102040102040806C
:1001D000020102010804020101020408102040800B
:1001E0008040201008040201800402018040201099
:1001F00008040201080402010102040810204080E2
:100200000102040810204080000022002500280080
:100210002B002E003100340002010000050108010E
:100220000B0105050505070508080808020202027A
:100230000A0A080804040404010101010101010182
:100240000303030303030303040707070C0C0C0C4D
:100250000C0C0C0C02020202060606060606060636
:100260000B0B0B0B0B0B0B0B0200CB1411241FBE43
:10027000CFEFD1E2DEBFCDBF00E00CBF12E0A0E0C7
:10028000B2E0EAE9FFE200E00BBF02C007900D9286
:10029000AC3FB107D9F724E0ACEFB2E001C01D924A
:1002A000A23FB207E1F711E0C6E3D1E000E006C0EB
:1002B00021970109802FFE010E94C317C533D10782
:1002C00080E00807A9F70E94F10D0C94CB170C945D
:1002D00000008150823108F05AC0E82FF0E08827F2
:1002E000EB58FE4F8F4F0C94C3179501990187016E
:1002F0008D019101C7019C01A201A601AC01B001D1
:10030000B401BA01BE01C701C201C801CC0180918C
:1003100080008F77809380000895809180008F7D8A
:10032000F9CF80918000877FF5CF84B58F7784BD2A
:10033000089584B58F7DFBCF8091B0008F77809337
:10034000B00008958091B0008F7DF9CF809190002A
:100350008F77809390000895809190008F7DF9CFE2
:1003600080919000877FF5CF8091A0008F77809358
:10037000A00008958091A0008F7DF9CF8091A0000A
:10038000877FF5CF809120018F778093200108959A
:10039000809120018F7DF9CF80912001877FF5CF5B
:1003A000CF93DF93282F30E0F901E458FE4F84917A
:1003B000F901EE53FE4FD491F901EE5DFD4FC4916A
:1003C000CC23A1F081110E946901EC2FF0E0EE0F27
:1003D000FF1FEE59FE4FA591B491EC91ED2381E002
:1003E00090E009F480E0DF91CF91089580E090E003
:1003F000FACF1F93CF93DF93282F30E0F901E45811
:10040000FE4F8491F901EE53FE4FD491F901EE5D58
:10041000FD4FC491CC23A9F0162F81110E946901D0
:10042000EC2FF0E0EE0FFF1FE85FFD4FA591B491B8
:100430008FB7F894EC91111108C0D095DE23DC93AE
:100440008FBFDF91CF911F910895DE2BF8CFCF930F
:10045000DF9390E0FC01EE53FE4F24918E5D9D4FA3
:10046000FC0184918823C9F090E0880F991FFC015A
:10047000E85BFE4FA591B491FC01E85FFD4FC5918B
:10048000D49161110DC09FB7F8948C91209582236F
:100490008C938881282328839FBFDF91CF91089573
:1004A000623051F49FB7F8943C91822F809583235A
:1004B0008C93E8812E2BEFCF8FB7F894EC912E2BF5
:1004C0002C938FBFEACF4F925F926F927F928F9261
:1004D0009F92AF92BF92CF92DF92EF92FF920F93D3
:1004E0001F93CF938C014A015B01809114028A31E2
:1004F00099F08F3F09F46FC0CF911F910F91FF903A
:10050000EF90DF90CF90BF90AF909F908F907F90B3
:100510006F905F904F900895E8E6F2E0C491C7FDB8
:10052000EBCF61E08AE10E9427022801712C612C47
:10053000CC23E9F0980150E040E0C23009F01FC13F
:1005400028013A0160E970ED83E090E00E944416D2
:1005500069017A0181E0C81AD108E108F1088FEF3A
:10056000C816D104E104F10409F00CF495C168E463
:1005700078EE81E090E0A30192010E9444166901A7
:100580007A0181E0C81AD108E108F108CC2309F406
:10059000A1C1C23009F094C18FEFC816D104E104A3
:1005A000F10409F00CF494C164E274EF80E090E08F
:1005B000A30192010E94441669017A0181E0C81AE0
:1005C000D108E108F10885E09091B100987F892B6E
:1005D0008093B1009BC18AE180931402E8E6F2E0C7
:1005E000C4918C2FCF3F09F487CFC23009F468C083
:1005F00060F4CC2379F1C13009F444C087FD7CCF8D
:1006000061E08AE10E94270295CFC43009F499C0C5
:1006100008F478C0C53091F71092200110922101A2
:100620008091210188608093210180912101816066
:1006300080932101ECE3F2E0E491F0E0EE0FFF1F84
:10064000E85FFD4F85919491ECEDF1E0E491E0934A
:10065000620467CF14BC15BC84B5826084BD85B5C7
:10066000816085BDECE3F2E0E491F0E0EE0FFF1F66
:10067000E85FFD4F85919491ECEDF1E0E491E0931A
:1006800069044FCF10928000109281008091810008
:1006900088608093810080918100816080938100D7
:1006A000ECE3F2E0E491F0E0EE0FFF1FE85FFD4FB6
:1006B00085919491ECEDF1E0E491E093680431CF01
:1006C0001092B0001092B1008091B00082608093CF
:1006D000B0008091B10081608093B100ECE3F2E062
:1006E000E491F0E0EE0FFF1FE85FFD4F85919491DC
:1006F0009093670480936604ECEDF1E0E491E0935D
:1007000065040FCF1092900010929100809191009B
:100710008860809391008091910081608093910026
:10072000ECE3F2E0E491F0E0EE0FFF1FE85FFD4F35
:1007300085919491ECEDF1E0E491E0936404C3E0E1
:10074000F0CE1092A0001092A1008091A1008860CC
:100750008093A1008091A10081608093A100ECE3CF
:10076000F2E0E491F0E0EE0FFF1FE85FFD4F8591AE
:100770009491ECEDF1E0E491E0936304D2CE60E07B
:1007800072E18AE790E00E94441669017A0181E0F3
:10079000C81AD108E108F108C13039F4809181000C
:1007A000887F816080938100B1C0C33039F480912B
:1007B0009100887F816080939100A8C0C43039F493
:1007C0008091A100887F81608093A1009FC0C53087
:1007D00009F09CC080912101887F81608093210174
:1007E00095C0C7BC20937E0430937F04409380045F
:1007F0005093810480916E00826080936E007CCE65
:10080000C092B30020937604309377044093780429
:1008100050937904809170008260809370006CCE58
:10082000D0929900C0929800209372043093730480
:10083000409374045093750480917100826080939A
:1008400071005ACED092A900C092A80020936E04E5
:1008500030936F0440937004509371048091720040
:1008600082608093720048CEC43061F3CCF2C53010
:1008700009F042CED0922901C092280120936A0447
:1008800030936B0440936C0450936D04809173001B
:1008900082608093730030CE83E096CE62E17AE787
:1008A00080E090E0A30192010E94441669017A0160
:1008B00081E0C81AD108E108F108C1E086E084CEE1
:1008C0008FEFC816D104E104F10409F03CF7C1E050
:1008D00084E07ACE93E08FEFC816D104E104F104EE
:1008E00089F084F062E17AE780E090E0A301920170
:1008F0000E94441669017A0181E0C81AD108E10812
:10090000F10894E085B5887F892B85BDD801AA0FB1
:10091000BB1FA50194010E94631628EE33E040E05E
:1009200050E00E946E16C23009F46ACF0CF09CCFE2
:10093000CC2309F456CFC13009F0DECDD092890026
:10094000C092880020937A0430937B0440937C0407
:1009500050937D0480916F00826080936F00CCCDB6
:100960003FB7F89480915E0490915F04A091600479
:10097000B091610426B5A89B05C02F3F19F00196E0
:10098000A11DB11D3FBFBA2FA92F982F8827BC01E9
:10099000CD01620F711D811D911D42E0660F771F11
:1009A000881F991F4A95D1F708958F929F92AF9211
:1009B000BF92CF92DF92EF92FF924B015C010E94B7
:1009C000B0046B017C010E94B0046C197D098E0992
:1009D0009F09683E734081059105A8F321E0821AC2
:1009E0009108A108B10888EEC80E83E0D81EE11C6A
:1009F000F11C81149104A104B10429F7FF90EF9038
:100A0000DF90CF90BF90AF909F908F9008952FB7B9
:100A1000F89460915A0470915B0480915C04909109
:100A20005D042FBF0895AF92BF92CF92DF92EF92F5
:100A3000FF920F931F93CF93DF936C017B018B0188
:100A4000040F151FEB015E01AE18BF08C017D107D8
:100A500059F06991D601ED91FC910190F081E02D62
:100A6000C6011995892B79F7C501DF91CF911F91A7
:100A70000F91FF90EF90DF90CF90BF90AF900895CF
:100A8000CF93DF93DC0126E0629FA00DB11D1124FE
:100A900090965C934E935F9721E091962C9391975B
:100AA000FC01E359FF4F0190F081E02DEC01C459A6
:100AB000DF4F2881222341F0309719F0DC016623B3
:100AC00029F0DF91CF9108953097D9F35C968C91FE
:100AD000DF91CF911994CF92DF92EF92FF920F9313
:100AE0001F93CF93DF93EC01162F042FFC0186E0B8
:100AF000689FE00DF11D112411A2878D90A1813016
:100B0000910509F180F08230910509F443C0039703
:100B100009F445C0DF91CF911F910F91FF90EF90A5
:100B2000DF90CF9008954423A9F341E050E0CE0137
:100B30000E9440050E940705C85ADF4F68837983E9
:100B40008A839B83E7CF0E940705FE01E85AFF4F87
:100B5000C080D180E280F380AB01BC014C195D09FB
:100B60006E097F09729680819181B0E0A0E08417C0
:100B70009507A607B70770F442E050E0612FCE0159
:100B8000DF91CF911F910F91FF90EF90DF90CF9069
:100B90000C94400543E050E00111BCCFEFCF50E092
:100BA00040E0ECCF862F642F0C942702862F642F11
:100BB0000C94F901862F0C94D0012F923F924F9202
:100BC0005F926F927F928F929F92AF92BF92CF92DD
:100BD000DF92EF92FF920F931F93CF93DF93CDB7E6
:100BE000DEB72C970FB6F894DEBF0FBECDBF9C8743
:100BF0008B8784599F4F9A83898381E0A981BA8129
:100C00008C930E940705EB85FC85E45AFF4FFC831B
:100C1000EB830081118122813381AB01BC01401B38
:100C2000510B620B730BEB85FC85E859FF4F8081FC
:100C30009181B0E0A0E084179507A607B70708F0F8
:100C40004FC110E0CB84DC84F6E6CF0ED11CEB84E0
:100C5000FC8422E6E20EF11CD6018C91181758F4A0
:100C6000D701ED91FC91E10FF11D62E080810E94BE
:100C700027021F5FF1CF312C4B845C84B7E64B0E0B
:100C8000511CEB84FC84E4E6EE0EF11C812C912CCB
:100C9000540183942B853C852E593F4F3A872987F1
:100CA000D2018C91381608F063C0032D10E0D701F3
:100CB000ED91FC91E00FF11F61E080810E9427021D
:100CC000D701ED91FC91E00FF11F60E080810E945F
:100CD000F901D501C401032C04C0880F991FAA1F74
:100CE000BB1F0A94D2F79E838D83FC01E095F0959B
:100CF000F887EF83212CD6018C91281620F5622CE1
:100D0000712CA985BA85ED91FC91E60DF71D8081C6
:100D10000E94D001660C771CEB85FC85E60DF71D63
:100D2000892B51F4808591852D813E81822B932BD7
:100D3000918780872394DFCF80859185AF81B885A7
:100D40008A239B23F5CFD701ED91FC91E00FF11F92
:100D500061E080810E94F901F70180819181080F93
:100D6000191F60E0D8018C910E942702339498CF1C
:100D70000B851C85C801CC9678012FEF3FEFF7015A
:100D8000478D50A1452B21F4148E368F258F11A24B
:100D9000F6E0EF0EF11CE816F90689F7A12C8B841A
:100DA0009C8420E6820E911C96E0392ED6018C910F
:100DB000A81608F058C0B12C6A2C712CB4E06B0E48
:100DC000711C660C771CEB85FC856E0E7F1ED201B4
:100DD0008C91B81608F045C0F301408151810B2C6D
:100DE00002C0569547950A94E2F7A89EC0011124C7
:100DF0008B0D911DEB85FC8560E0258D368D82176E
:100E0000930709F472C06F5F36966A30B1F740FFFE
:100E100026C0EB85FC8570E060E0248D211119C0AF
:100E2000D401ED91FC91E80FF91F4081369EF0014D
:100E3000379EF00D11242B853C85E20FF31F448F64
:100E4000968F858F10A2178E41E0C9010E946B0515
:100E500006C06F5F7F4F36966A307105F1F6B39426
:100E6000B6CFA394A3CFD12CD80191968C918111A8
:100E7000D82E0A5F1F4FE016F106B1F70E94070552
:100E8000EB81FC816083718382839383DD2041F158
:100E9000AB85BC8591968C919197882309F15F96DB
:100EA0008D919C9190970197D9F45C968C912C969A
:100EB0000FB6F894DEBF0FBECDBFDF91CF911F916B
:100EC0000F91FF90EF90DF90CF90BF90AF909F90E9
:100ED0008F907F906F905F904F903F902F900895EC
:100EE000E981FA81108280E0E2CF41708B859C8598
:100EF000ADCF089590E080E008958330910511F121
:100F000084309105A1F10297B1F044E650E060E031
:100F100070E088EE93E00E94630266E970E080E092
:100F200090E00E94D5044CE251E060E070E08CED6E
:100F300095E00C94630242E350E060E070E080EDE5
:100F400097E0F7CF44E650E060E070E080E293E0A5
:100F50000E94630264E670E080E090E00E94D504A5
:100F600044E650E060E070E080E293E0E2CF4CE2E3
:100F700051E060E070E084EF91E00E9463026CE277
:100F800071E080E090E00E94D50440E951E060E02B
:100F900070E08CE291E0CDCF60E081E30E94F90146
:100FA00060E082E30C94F901CF9360E086E20E9456
:100FB000F90160E085E20E94F90160E084E20E94AC
:100FC000F901C091750361E086E2CC2341F061E054
:100FD00085E2C13021F0C23021F461E084E20E9458
:100FE000F90160E083E20E94F90160E082E20E9480
:100FF000F90160E081E20E94F9018091050381110D
:1010000027C061E083E20E94F90160E089E10E946B
:10101000F90160E088E10E94F90160E087E10E9447
:10102000F901809157048823E9F0809156048111D9
:1010300019C061E089E1CC2341F061E088E1C13071
:1010400021F0C23079F461E087E1CF910C94F9018D
:10105000813019F461E082E2D6CF8230B1F661E0EE
:1010600081E2D1CFCF91089580917503209105033E
:1010700030E050E040E0280F311D411D511DA0E33C
:10108000B5E70E946316605A75418F4F9F4F60937A
:10109000100270931102809312029093130208952C
:1010A0008091E503813079F040F0823089F083301F
:1010B00091F00E94D4070C94340881E080930503DA
:1010C00080937503F6CF8093050310927503F1CFDB
:1010D00010920503FACF82E0F1CFCF92DF92EF9228
:1010E000FF920F931F93CF93DF931F921F92CDB761
:1010F000DEB769834A83880F991F0091D804109145
:10110000D904000F111FE2E8F4E09F012258344097
:101110002017310714F41192F8CF2981FC01EE5702
:10112000FB4F21838A81808360E08091D6040E94F6
:10113000F9011016110604F501501109F801EE57D6
:10114000FB4FE080D090D404C090D20488E0F82E09
:101150006E2D661F6627661F8C2D0E94F901EE0C0E
:1011600061E08D2D0E94F90160E08D2D0E94F90152
:10117000FA94F110EDCFDDCF61E08091D6040F90AD
:101180000F90DF91CF911F910F91FF90EF90DF9023
:10119000CF900C94F901EF92FF921F93CF93DF93BE
:1011A0002091D8043091D90482179307B4F4EC014C
:1011B00023E0880F991F2A95E1F79C012E563B4F9B
:1011C000790111E0F70111927F0140E0612FCE011A
:1011D0000E946D081F5F1930A9F7DF91CF911F9111
:1011E000FF90EF900895CF93DF93D0E0C0E0CE0161
:1011F0000E94CB082196C830D105C9F7DF91CF9165
:101200000895E091D804F091D9048E179F073CF51A
:101210006830710520F557FD22C048305105F9F0BE
:10122000E0E8F0E0DF0102C0B595A7954A95E2F746
:10123000AD01FC0133E0EE0FFF1F3A95E1F7E60F39
:10124000F71FEE57FB4F3089222331F0432B408BA1
:101250006F5F40890C946D0840954323F8CF089543
:10126000CF93DF93EC0160E08E810E94F90161E091
:101270008E810E94F90160E08E810E94F9018BE865
:1012800091E00197F1F7DF91CF910895CF92DF922E
:10129000EF92FF920F931F93CF93DF936C017C012A
:1012A00087E0E80EF11CD0E0C0E0062F10E0B801A6
:1012B0000C2E02C0759567950A94E2F76170F701EC
:1012C00081917F010E94F9012196C430D10579F7FF
:1012D000C601DF91CF911F910F91FF90EF90DF90AA
:1012E000CF900C943009CF92DF92EF92FF920F9340
:1012F0001F93CF93DF93EC01F62E642F8C810E9415
:10130000F9018D818F3F19F060E00E94F9010F2DE6
:1013100010E08F8584FF25C06E0187E0C80ED11CC8
:10132000F12CE12CB8010E2C02C0759567950A943A
:10133000E2F76170F60181916F010E94F901FFEF00
:10134000EF1AFF0A88E0E816F10461F7CE01DF9199
:10135000CF911F910F91FF90EF90DF90CF900C9461
:101360003009B80184E0759567958A95E1F7CE015B
:101370000E9446096F2DCE01DF91CF911F910F91F1
:10138000FF90EF90DF90CF900C94460940E0682FDB
:101390008AED94E00C94730981E00E94C6098BE306
:1013A0009FE10197F1F70895CF93DF93823029F4FD
:1013B0009091E90498609093E9048093ED04109271
:1013C000EE0480E48093EF0480E18093F00480E5F4
:1013D0008093F10461E08091DE040E9427028091F5
:1013E000DF048F3F19F061E00E94270261E08091E5
:1013F000E0040E942702CAEDD4E09E012A5D344039
:101400008091E90484FD0BC084E090E021962817C8
:10141000390744F461E08E810E942702EECF88E014
:1014200090E0F4CF8BE39DE00197F1F760E08091CD
:10143000DE040E94F90160E08091E0040E94F9015D
:101440008091DF048F3F19F060E00E94F9018091E4
:10145000E90484FD34C063E08AED94E00E9446090B
:10146000CBE4D6E4CE010197F1F763E08AED94E096
:101470000E9446092197F1F763E08AED94E00E940B
:10148000460983E592E00197F1F762E08AED94E086
:101490000E9446098091E90480620E94C60984E0A6
:1014A0008093EA048CE00E94C6090E94CC0982E085
:1014B0008093EB0486E0DF91CF910C94C6098062A3
:1014C0000E94C6098BE496E40197F1F78091E90444
:1014D00080620E94C60983E592E00197F1F780914E
:1014E000E90480620E94C609D5CF9091ED04691786
:1014F00010F06FEF690FE62FF0E0E652FB4F948992
:10150000890F80680C94C6090E94CC09EAEDF4E0CA
:1015100080898B7F808B88600E94C6090E94CC07DF
:101520000E94F30860E086E20E94F90160E085E233
:101530000E94F90160E084E20E94F90160E083E228
:101540000E94F90160E082E20E94F90160E081E21C
:101550000E94F901109257041092560481E0809382
:10156000000210927503109205031092E5030C948B
:10157000340841E00E94730981E090E008958F9261
:101580009F92AF92BF920F931F93CF93DF93CDB7EC
:10159000DEB7A1970FB6F894DEBF0FBECDBF19A27C
:1015A000423008F44AE08E010F5D1F4F842E912CCB
:1015B000B12CA12CA50194010E946E16E62FB90151
:1015C000CA01EA3044F5E05DD801EE938D01232B8A
:1015D000242B252B79F790E080E0109769F0FD012E
:1015E00001900020E9F73197AF014A1B5B0BBD0169
:1015F0008AED94E00E941305A1960FB6F894DEBF21
:101600000FBECDBFDF91CF911F910F91BF90AF90D3
:101610009F908F900895E95CD7CFCF92DF92EF92A1
:10162000FF926C01990FEE08FF08F7FE16C041E02B
:101630006DE28AED94E00E94730966277727CB015B
:101640006C197D098E099F094AE00E94BF0A019624
:10165000FF90EF90DF90CF9008954AE0C701B60168
:10166000FF90EF90DF90CF900C94BF0A009769F045
:10167000FC0101900020E9F73197AF01481B590B9D
:10168000BC018AED94E00C94130590E080E008958D
:10169000809155048823E9F061E080E00E94750A9A
:1016A00083E392E00E94360B8091E503811104C030
:1016B0008AE392E00C94360B813019F486E492E0D0
:1016C000F9CF823019F482E592E0F4CF8EE592E012
:1016D000F1CF80910002811142C08091570488238C
:1016E00021F0809156048823D1F161E080E00E94CE
:1016F000750A8AE692E00E94360B8091750381118B
:101700001EC08DE692E00E94360B8CE792E00E94AC
:10171000360B8091050381111AC08DE692E00E947C
:10172000360B8091570481111AC0809156048111A3
:1017300016C060E00E94750A8FE792E0BBCF81304F
:1017400019F482E792E0DFCF87E792E0DCCF8130C7
:1017500019F482E792E0E3CF87E792E0E0CF0895C3
:101760000F931F93CF938EE20E94D001892B99F1A2
:1017700080915804882379F180915704882321F0BF
:1017800080915604882339F162E370E080E090E0B4
:101790000E94D5048EE20E94D001892BE1F0C09115
:1017A000550481E0C827C093550482E090E00E9470
:1017B0007D07CC2309F493C00E94CC0980E992E014
:1017C0000E94360B0E9450080E94480B8EE20E9435
:1017D000D001892BD9F780E30E94D001892B09F42D
:1017E0004DC062E370E080E090E00E94D50480E3A9
:1017F0000E94D001892B09F441C0809158048111C5
:1018000075C081E08093580481E090E00E947D07DC
:101810008091EA04982F94609093EA048C600E946F
:10182000C6090E94CC098AEA92E00E94360B61E068
:1018300083E00E94750A85EB92E00E94360B6CED06
:1018400075E080E090E00E94D504109200020E94B2
:10185000CC098FE792E00E94360B1092E5031092BC
:101860000503109275030E9434080E94480B0E94E1
:10187000D40780E30E94D001892BD9F78FE20E9420
:10188000D001892B09F46BC080915804882309F496
:1018900066C062E370E080E090E00E94D5048FE2D1
:1018A0000E94D001892B09F45AC083E090E00E9485
:1018B0007D078091570481112BC081E080935704EC
:1018C000109256040E94070560930103709302036F
:1018D00080930303909304030E94CC093BC00E94B1
:1018E000CC098CE992E00E94360B6ECF80915704B0
:1018F000882329F080915604882309F4BACF84E024
:1019000090E00E947D07109258040E94840AB1CF93
:101910008091560491E0892780935604882319F119
:101920000E94CC070E94F3080E9407056093FC0206
:101930007093FD028093FE029093FF020E94CC09F7
:1019400060E080E00E94750A8DEB92E00E94360B09
:101950000E94480B8FE20E94D001892BD9F7CF91CA
:101960001F910F9108950E940705AB01BC01809162
:10197000010390910203A0910303B091040300912D
:10198000FC021091FD022091FE023091FF02801BAB
:10199000910BA20BB30B840F951FA61FB71F80934B
:1019A000010390930203A0930303B093040394CF25
:1019B0008F929F92AF92BF92CF92DF92EF92FF925F
:1019C0004B015C010E9407056B017C010E94070529
:1019D0006C197D098E099F09681579058A059B0593
:1019E00098F40E94B00B8091560481110FC0809131
:1019F00058048111EBCFFF90EF90DF90CF90BF9014
:101A0000AF909F908F90089581E0F5CF80E0F3CF65
:101A10001F920F920FB60F9211242F933F938F9323
:101A20009F93AF93BF9380915A0490915B04A091D0
:101A30005C04B0915D043091590423E0230F2D37ED
:101A400058F50196A11DB11D2093590480935A04A5
:101A500090935B04A0935C04B0935D0480915E045A
:101A600090915F04A0916004B09161040196A11D62
:101A7000B11D80935E0490935F04A0936004B093C3
:101A80006104BF91AF919F918F913F912F910F90E2
:101A90000FBE0F901F90189526E8230F0296A11DE8
:101AA000B11DD2CF1F920F920FB60F9211240BB619
:101AB0000F922F933F934F935F936F937F938F93E7
:101AC0009F93AF93BF93EF93FF9380917604909190
:101AD0007704A0917804B0917904892B8A2B8B2B01
:101AE000E1F190916504E0916604F09167048081D2
:101AF000892780838091760490917704A09178045F
:101B0000B0917904181619061A061B069CF48091E8
:101B1000760490917704A0917804B09179040197AC
:101B2000A109B1098093760490937704A093780477
:101B3000B0937904FF91EF91BF91AF919F918F91F5
:101B40007F916F915F914F913F912F910F900BBEBD
:101B50000F900FBE0F901F90189580911402E8E629
:101B6000F2E0E4919FEF90931402E230E9F040F448
:101B7000EE2389F0E13091F060E00E94F901DACFC4
:101B8000E43049F110F1E530B9F7909173009D7F91
:101B900090937300F1CF10926E00EECF90916F0092
:101BA0009D7F90936F00E8CF909170009D7F909300
:101BB000700091E09093B0009091B100987F946094
:101BC0009093B1001092B300D7CF909171009D7F98
:101BD00090937100D1CF909172009D7F909372008D
:101BE000CBCFCF93DF93CDB7DEB764970FB6F89422
:101BF000DEBF0FBECDBF789484B5826084BD84B54E
:101C0000816084BD85B5826085BD85B5816085BDF7
:101C100080916E00816080936E00109281008091AF
:101C20008100826080938100809181008160809337
:101C30008100809180008160809380008091B1005C
:101C400084608093B1008091B00081608093B00087
:101C500080919100826080939100809191008160D9
:101C6000809391008091900081608093900080919A
:101C7000A10082608093A1008091A1008160809387
:101C8000A1008091A00081608093A000809121013B
:101C900082608093210180912101816080932101E4
:101CA0008091200181608093200180917A0084607E
:101CB00080937A0080917A00826080937A0080918C
:101CC0007A00816080937A0080917A0080688093A6
:101CD0007A001092C10061E089E10E94270261E070
:101CE00088E10E94270261E087E10E94270210E05C
:101CF00000E08091D8049091D904081719072CF4BA
:101D000041E06CE0C8010E946D088091D804909178
:101D1000D904081719072CF44AE06AE0C8010E94A8
:101D20006D08C8010E94CB080F5F1F4F08301105D6
:101D300001F761E081E30E94270261E082E30E94F3
:101D4000270282E00E94D40960E080E30E9427021B
:101D500060E08FE20E94270261E08AE10E94270290
:101D600061E086E20E94270261E085E20E9427028C
:101D700061E084E20E94270261E083E20E94270280
:101D800061E082E20E94270261E081E20E94270274
:101D90000E94840A0E94B00B80915804882309F4A1
:101DA00083C080915704882321F0809156048823B2
:101DB00031F180915504882309F486C086EE93E0C2
:101DC0000E94DD058823D9F0893609F075C080911D
:101DD000E50390E00196837099278093E5030E94C4
:101DE00050080E94340882E090E00E947D070E9423
:101DF000480B64E670E080E090E00E94D5040E9409
:101E0000D40780915704882309F44EC0809156046A
:101E100081114AC00E94070500910103109102033D
:101E200020910303309104036B017C01C01AD10A95
:101E3000E20AF30A409010025090110260901202E0
:101E400070901302C414D504E604F70408F48FC09C
:101E5000109257040E94CC070E94F30884E090E09F
:101E60000E947D070E94CC098EEC92E00E94360B06
:101E700060ED77E080E090E00E94D5040E94840A43
:101E800081E0809358048091EA04982F94609093A5
:101E9000EA048C600E94C6098FE792E00E94360B2C
:101EA0000E94480B0E94D40780E090E0892B09F43F
:101EB00071CF0E9400006ECF8A3609F090CF8091DA
:101EC000E50390E0039687CF86E793E00E94DD0567
:101ED0008823C9F08F36C1F580917503823090F563
:101EE0008F5F809375030E94340882E090E00E9427
:101EF0007D070E94D4070E94480B68EC70E080E0E8
:101F000090E00E94D50486E093E00E94DD058823DE
:101F100009F475CF803711F5809105038230E0F424
:101F20008F5F809305030E94340882E090E00E9456
:101F30007D070E94D4070E94480B68EC70E080E0A7
:101F400090E05BCF82E0CDCF8B36E9F680917503D0
:101F5000882349F28150C5CF82E0E3CF8C3609F067
:101F60004ECF809105038823F1F28150DACFC7016B
:101F7000B6010E94A4164B015C01C301B2010E948C
:101F8000A4162B013C0120E030E040E85EE30E9413
:101F900005179B01AC01C501B4010E949F1687FF84
:101FA000F7C01092000360E080E00E94750A88E0AC
:101FB000E5E1F2E0DE01119601900D928A95E1F7DC
:101FC0008091000390E0880F991F21E030E02C0FF2
:101FD0003D1F820F931FFC01808191810E94360B6F
:101FE00085EC92E00E94360B60E08CE00E94750A5E
:101FF000609110027091110280911202909113026F
:102000006C197D098E099F0997FF03C060E070E09D
:10201000CB0120E63AEE40E050E00E944416290150
:1020200028EE33E040E050E00E9444164901890167
:10203000C2010E940D0B8DE792E00E94360B0A3020
:10204000110524F48FED92E00E94360BC4010E942A
:102050000D0B61E080E00E94750AC701B60124E023
:10206000660F771F881F991F2A95D1F720911002BC
:102070003091110240911202509113020E944416B5
:102080008901F12CE12C6FE5E016F1060CF46FEFFD
:1020900041E08AED94E00E947309FFEFEF1AFF0A16
:1020A00020E1E216F10479F780910503811122C045
:1020B00060E082E30E94F90161E081E30E94F9019E
:1020C0001AEFE12EFF24FA940CEFC02EDD24DA94EF
:1020D0000EEF1FEF580132E0A30EB11C80915604A1
:1020E000811104C08091580481117AC00E94CC07EC
:1020F0000E94F30880910503813011F561E082E3CD
:102100000E94F90160E081E30E94F901EAEFEE2EFE
:10211000FF24FA94FCEFCF2EDD24DA940EEF1FEFAC
:10212000580192E0A90EB11C80915604811104C09F
:102130008091580481118DC10E94CC070E94F30840
:1021400080910503823009F0AFCE61E082E30E9406
:10215000F90161E081E30E94F9014AEFC42EDD2418
:10216000DA945CEFA52EBB24BA940EEF1FEF280182
:10217000F2E04F0E511C80915604811104C08091F1
:102180005804811118C30E94CC070E94F3088CCE1A
:1021900020E030E040E05FE3C301B2010E94051798
:1021A0009B01AC01C501B4010E949F1687FF04C0CA
:1021B00081E080930003F7CE20E030E040E45FE36D
:1021C000C301B2010E9405179B01AC01C501B40116
:1021D0000E949F1687FF02C082E0EBCF83E0E9CF29
:1021E000312C212C80915604811180CF809158048C
:1021F000882309F47BCF21E0A101B50187E090E0BD
:102200000E940109410183E0881A910821E0A4019C
:10221000B80187E090E00E940109F1013697FC8740
:10222000EB8721E0AF01B60187E090E00E94010951
:102230009101295031093A87298721E049855A853A
:10224000B70187E090E00E94010921E0A101B501FA
:1022500086E090E00E94010921E0A401B80186E037
:1022600090E00E94010921E04B855C85B60186E083
:1022700090E00E94010921E049855A85B70186E076
:1022800090E00E940109A7E06A2E712C6218730881
:1022900021E0A301B50190E080E00E940109B4E0D3
:1022A0004B2E512C4218530821E0A201B80190E0B6
:1022B00080E00E94010981E090E0821993099E87E5
:1022C0008D8721E0AC01B60190E080E00E94010919
:1022D000EEEFFFEFE219F309F88BEF8721E0AF0192
:1022E000B70190E080E00E94010921E0A301B5015F
:1022F00081E090E00E94010921E0A201B80181E0A3
:1023000090E00E94010921E04D855E85B60181E0E3
:1023100090E00E94010921E04F855889B70181E0D2
:1023200090E00E94010960E570E080E090E00E948A
:10233000D80C882309F4DACE20E0A101B50187E0AA
:1023400090E00E94010920E0A401B80187E090E03C
:102350000E94010920E04B855C85B60187E090E092
:102360000E94010920E049855A85B70187E090E085
:102370000E94010920E0A101B50186E090E00E94E1
:10238000010920E0A401B80186E090E00E94010963
:1023900020E04B855C85B60186E090E00E94010953
:1023A00020E049855A85B70186E090E00E94010946
:1023B00020E0A301B50190E080E00E94010920E047
:1023C000A201B80190E080E00E94010920E04D8563
:1023D0005E85B60190E080E00E94010920E04F8513
:1023E0005889B70190E080E00E94010920E0A30134
:1023F000B50181E090E00E94010920E0A201B8014E
:1024000081E090E00E94010920E04D855E85B601E3
:1024100081E090E00E94010920E04F855889B701D2
:1024200081E090E00E940109FFEF2F1A3F0A28E0A7
:102430002216310409F0D6CE0F5F1F4F3FEFC31AAB
:10244000D30A8FEFE81AF80A0630110509F042CED8
:1024500051CE312C212C8091560481116DCE80916A
:102460005804882309F468CE21E0A101B50187E072
:1024700090E00E9401094101E3E08E1A910821E0F9
:10248000A401B80187E090E00E9401099101265063
:1024900031093A87298721E049855A85B60187E0C5
:1024A00090E00E940109C10109979C878B8721E078
:1024B000AC01B70187E090E00E94010921E0A10191
:1024C000B50186E090E00E94010921E0A401B80175
:1024D00086E090E00E94010921E049855A85B60115
:1024E00086E090E00E94010921E04B855C85B70100
:1024F00086E090E00E94010921E0A101B50185E09C
:1025000090E00E94010921E0A401B80185E090E07B
:102510000E94010921E049855A85B60185E090E0D5
:102520000E94010921E04B855C85B70185E090E0C0
:102530000E94010967E0662E712C6218730821E081
:10254000A301B50190E080E00E94010974E0472EEC
:10255000512C4218530821E0A201B80190E080E01C
:102560000E940109E1E0F0E0E219F309F88BEF873E
:1025700021E0AF01B60190E080E00E9401092EEF5A
:102580003FEF221933093E872D8721E04D855E8577
:10259000B70190E080E00E94010921E0A301B501AC
:1025A00081E090E00E94010921E0A201B80181E0F0
:1025B00090E00E94010921E04F855889B60181E031
:1025C00090E00E94010921E04D855E85B70181E020
:1025D00090E00E94010921E0A301B50182E090E0B2
:1025E0000E94010921E0A201B80182E090E00E946E
:1025F000010921E04F855889B60182E090E00E94F0
:10260000010921E04D855E85B70182E090E00E94DE
:10261000010962E370E080E090E00E94D80C88231A
:1026200009F48ACD20E0A101B50187E090E00E9485
:10263000010920E0A401B80187E090E00E940109AF
:1026400020E049855A85B60187E090E00E940109A3
:1026500020E04B855C85B70187E090E00E9401098E
:1026600020E0A101B50186E090E00E94010920E090
:10267000A401B80186E090E00E94010920E04985AC
:102680005A85B60186E090E00E94010920E04B8562
:102690005C85B70186E090E00E94010920E0A1017D
:1026A000B50185E090E00E94010920E0A401B80195
:1026B00085E090E00E94010920E049855A85B60135
:1026C00085E090E00E94010920E04B855C85B70120
:1026D00085E090E00E94010920E0A301B50190E0AF
:1026E00080E00E94010920E0A201B80190E080E0B2
:1026F0000E94010920E04F855889B60190E080E0F2
:102700000E94010920E04D855E85B70190E080E0E0
:102710000E94010920E0A301B50181E090E00E9440
:10272000010920E0A201B80181E090E00E940109C6
:1027300020E04F855889B60181E090E00E940109B0
:1027400020E04D855E85B70181E090E00E9401099F
:1027500020E0A301B50182E090E00E94010920E0A1
:10276000A201B80182E090E00E94010920E04F85BB
:102770005889B60182E090E00E94010920E04D8571
:102780005E85B70182E090E00E9401093FEF231AC5
:10279000330A88E02816310409F05DCE0F5F1F4F21
:1027A0009FEFC91AD90AEFEFEE1AFE0A063011059B
:1027B00009F0B6CCC5CC2EEF222E33243A9421E07A
:1027C00030E03A8B298B84E090E09A878987E7EFA5
:1027D000FFEFFC87EB872AEF3FEF388B2F878DEFDA
:1027E0009FEF9E878D8737E0632E712CE7E0F0E046
:1027F000E619F709FC8BEB8B809156048111C3CC51
:1028000080915804882309F4BECCF12CE12C97E088
:10281000892E912C8E189F0821E04B895C89B2018A
:10282000C4010E94010921E04D855E85B801C40103
:102830000E94010921E04F855889B501C4010E9419
:10284000010921E04B855C85B601C4010E940109A4
:1028500021E0A301B201C7010E94010921E04985DD
:102860005A85B801C7010E94010921E049895A89A6
:10287000B501C7010E94010921E0A101B601C7010C
:102880000E940109FFEFEF1AFF0A24E0E216F104AB
:1028900009F0BDCF6EE170E080E090E00E94D80CBE
:1028A000882309F470CCF12CE12C87E0882E912C40
:1028B0008E189F0820E04B895C89B201C4010E94F8
:1028C000010920E04D855E85B801C4010E9401091F
:1028D00020E04F855889B501C4010E94010920E01C
:1028E0004B855C85B601C4010E94010920E0A3016B
:1028F000B201C7010E94010920E049855A85B8014B
:10290000C7010E94010920E049895A89B501C70120
:102910000E94010920E0A101B601C7010E9401093E
:102920003FEFE31AF30A84E0E816F10409F0BDCFA3
:1029300091E0691A7108ED85FE853196FE87ED8775
:102940002F8538892F5F3F4F388B2F878B859C854C
:1029500001969C878B87E985FA853197FA87E98705
:1029600029893A89215031093A8B298B31E0231A80
:1029700031088FEF6816780609F038CF0F5F1F4FC8
:102980009FEFA91AB90AEFEFCE1ADE0A0630110539
:1029900009F0EDCB89CACF93DF93C3E3D0E0D093A6
:1029A000D304C093D20484E390E09093D504809341
:1029B000D40485E390E09093D7048093D60488E014
:1029C00090E09093D9048093D80461E083E30E945F
:1029D000270261E08091D4040E94270261E0809187
:1029E000D6040E94270261E08091D6040E94F9017A
:1029F000D093D304C093D204E2E9F4E0119284E0CE
:102A0000E23DF807D9F7D0E0C0E08091D80490917A
:102A1000D904C817D9073CF540E06FE0CE010E9409
:102A20006D088091D8049091D904C817D9072CF467
:102A300047E06BE0CE010E946D0840E069E0CE0106
:102A40000E946D08CE010E94CB088091D80490911D
:102A5000D904C817D9072CF440E06CE0CE010E94DD
:102A60006D082196D2CF1092DD041092DC048BE227
:102A700092E09093DB048093DA0488E28093DE0492
:102A80008FEF8093DF0489E28093E0048AE28093F1
:102A9000E1048BE28093E2048CE28093E3048DE214
:102AA0008093E4041092E5041092E6041092E70487
:102AB0001092E8041092E90481E00E94D409109277
:102AC000780310927C0310927B0310927D0381E2C5
:102AD00092E09093770380937603E2E9F3E010822B
:102AE000148213821582369683E0EE3CF807B9F71C
:102AF0008CE092E09093D9038093D8038BE092E02E
:102B00009093DB038093DA0382E08093DC0381E01F
:102B10008093DD038EE092E09093D7038093D603F9
:102B20008AE090E09093DF038093DE0384EF91E0EE
:102B30009093E1038093E0031092E4031092E30387
:102B40001092D2031092D3031092D4031092D503A3
:102B50001092E2031092080310920C0310920B03E0
:102B600010920D0381E292E0909307038093060395
:102B7000E2E2F3E08EE593E0108214821382158284
:102B800036968E179F07C1F787E092E0909369030E
:102B90008093680386E092E090936B0380936A03CE
:102BA00082E080936C0381E080936D0389E092E082
:102BB00090936703809366038AE090E090936F039D
:102BC00080936E0384EF91E0909371038093700380
:102BD00010927403109273031092620310926303B5
:102BE0001092640310926503109272031092E8032E
:102BF0001092EC031092EB031092ED0381E292E04D
:102C00009093E7038093E603E2E0F4E010821482FD
:102C100013821582369684E0EE33F807B9F782E026
:102C200092E0909349048093480481E092E090936D
:102C30004B0480934A0482E080934C0481E08093AB
:102C40004D0484E092E090934704809346048AE028
:102C500090E090934F0480934E0484EF91E0909322
:102C60005104809350041092540410925304109213
:102C700042041092430410924404109245041092AE
:102C80005204DF91CF910895052E97FB1EF4009416
:102C90000E945B1657FD07D00E946E1607FC03D0FA
:102CA0004EF40C945B1650954095309521953F4F0E
:102CB0004F4F5F4F089590958095709561957F4F28
:102CC0008F4F9F4F08950E949016A59F900DB49F1F
:102CD000900DA49F800D911D11240895A1E21A2E3C
:102CE000AA1BBB1BFD010DC0AA1FBB1FEE1FFF1FB0
:102CF000A217B307E407F50720F0A21BB30BE40B00
:102D0000F50B661F771F881F991F1A9469F7609546
:102D10007095809590959B01AC01BD01CF01089500
:102D2000A29FB001B39FC001A39F700D811D11240C
:102D3000911DB29F700D811D1124911D08950E9457
:102D4000E11608F481E00895E89409C097FB3EF489
:102D500090958095709561957F4F8F4F9F4F9923E8
:102D6000A9F0F92F96E9BB279395F6958795779566
:102D70006795B795F111F8CFFAF4BB0F11F460FF26
:102D80001BC06F5F7F4F8F4F9F4F16C0882311F07E
:102D900096E911C0772321F09EE8872F762F05C092
:102DA000662371F096E8862F70E060E02AF09A952D
:102DB000660F771F881FDAF7880F9695879597F922
:102DC0000895990F0008550FAA0BE0E8FEEF1616BC
:102DD0001706E807F907C0F012161306E407F5070F
:102DE00098F0621B730B840B950B39F40A2661F083
:102DF000232B242B252B21F408950A2609F4A14026
:102E0000A6958FEF811D811D08950E9418170C94BF
:102E100089170E947B1738F00E94821720F09523B3
:102E200011F00C9472170C94781711240C94BD17A0
:102E30000E949A1770F3959FC1F3950F50E0551FAC
:102E4000629FF001729FBB27F00DB11D639FAA27FF
:102E5000F00DB11DAA1F649F6627B00DA11D661F4E
:102E6000829F2227B00DA11D621F739FB00DA11D6F
:102E7000621F839FA00D611D221F749F3327A00D29
:102E8000611D231F849F600D211D822F762F6A2FC5
:102E900011249F5750409AF0F1F088234AF0EE0F2A
:102EA000FF1FBB1F661F771F881F91505040A9F757
:102EB0009E3F510580F00C9472170C94BD175F3F34
:102EC000E4F3983ED4F3869577956795B795F79593
:102ED000E7959F5FC1F7FE2B880F911D969587950B
:102EE00097F9089597F99F6780E870E060E008958A
:102EF0009FEF80EC089500240A9416161706180612
:102F00000906089500240A941216130614060506ED
:102F10000895092E0394000C11F4882352F0BB0F7E
:102F200040F4BF2B11F460FF04C06F5F7F4F8F4FE1
:102F30009F4F089557FD9058440F551F59F05F3F1C
:102F400071F04795880F97FB991F61F09F3F79F0CB
:102F500087950895121613061406551FF2CF46954D
:102F6000F1DF08C0161617061806991FF1CF8695CF
:102F70007105610508940895E894BB2766277727B3
:102F8000CB0197F90895EE0FFF1F881F8BBF0790A5
:102F9000F691E02D1994F894FFCF01151413696A86
:102FA0001D1C1B706C201F1E6F6B60EA0000FFE190
:102FB000029502EB02F40200000000D205D605DA09
:102FC0000500000000B90A13057A0779074D4F4440
:102FD0004F3A20004E4F524D414C202020202000DF
:102FE0004352495354414C455320200045434F4CD4
:102FF0004F4749434F20200050524553494F4E20E0
:1030000020202000543A0042414A20004D454420EF
:1030100000414C542000413A004C4953544F205039
:103020002F20494E4943494152004D4F444F204CB7
:10303000415641444F00434F4E464947204D414E73
:1030400055414C004C617661506C61746F73004760
:103050007275706F20360050415553412E2E2E2030
:1030600020202020202020004C415641444F205455
:1030700045524D494E41444F0030005052454C415D
:103080005641444F00454E4A55414755450053452A
:063090004341444F000023
:020000040003F7
:10E000000D9489F10D94B2F10D94B2F10D94B2F129
:10E010000D94B2F10D94B2F10D94B2F10D94B2F1F0
:10E020000D94B2F10D94B2F10D94B2F10D94B2F1E0
:10E030000D94B2F10D94B2F10D94B2F10D94B2F1D0
:10E040000D94B2F10D94B2F10D94B2F10D94B2F1C0
:10E050000D94B2F10D94B2F10D94B2F10D94B2F1B0
:10E060000D94B2F10D94B2F10D94B2F10D94B2F1A0
:10E070000D94B2F10D94B2F10D94B2F10D94B2F190
:10E080000D94B2F10D94B2F10D94B2F10D94B2F180
:10E090000D94B2F10D94B2F10D94B2F10D94B2F170
:10E0A0000D94B2F10D94B2F10D94B2F10D94B2F160
:10E0B0000D94B2F10D94B2F10D94B2F10D94B2F150
:10E0C0000D94B2F10D94B2F10D94B2F10D94B2F140
:10E0D0000D94B2F10D94B2F10D94B2F10D94B2F130
:10E0E0000D94B2F141546D656761323536300041AF
:10E0F000726475696E6F206578706C6F72657220DE
:10E1000073746B3530305632206279204D4C530099
:10E11000426F6F746C6F616465723E004875683F52
:10E1200000436F6D70696C6564206F6E203D200048
:10E130004350552054797065202020203D20005FF9
:10E140005F4156525F415243485F5F3D2000415658
:10E1500052204C696243205665723D20004743437C
:10E160002056657273696F6E203D20004350552024
:10E1700049442020202020203D20004C6F7720663D
:10E18000757365202020203D20004869676820665F
:10E190007573652020203D200045787420667573D6
:10E1A00065202020203D20004C6F636B2066757336
:10E1B000652020203D20004D617220203720323024
:10E1C000313300312E362E3800342E332E350056A2
:10E1D00023202020414444522020206F7020636F70
:10E1E00064652020202020696E73747275637469E1
:10E1F0006F6E2061646472202020496E74657272B3
:10E20000757074006E6F20766563746F7200726A49
:10E210006D702020006A6D70200057686174207056
:10E220006F72743A00506F7274206E6F7420737541
:10E2300070706F72746564004D7573742062652030
:10E2400061206C6574746572002000577269747483
:10E25000696E672045450052656164696E672045B7
:10E26000450045452065727220636E743D00504F35
:10E27000525400303D5A65726F2061646472003FF1
:10E280003D43505520737461747300403D454550C3
:10E29000524F4D207465737400423D426C696E6B41
:10E2A000204C454400453D44756D70204545505215
:10E2B0004F4D00463D44756D7020464C415348001B
:10E2C000483D48656C70004C3D4C69737420492F83
:10E2D0004F20506F72747300513D51756974005234
:10E2E0003D44756D702052414D00563D73686F7707
:10E2F00020696E7465727275707420566563746FF0
:10E30000727300593D506F727420626C696E6B00BD
:10E310002A0011241FBECFEFD1E2DEBFCDBF01E046
:10E320000CBF12E0A0E0B2E0EEE1FDEF03E00BBFB6
:10E3300002C007900D92A030B107D9F712E0A0E01B
:10E34000B2E001C01D92AE30B107E1F70F9460F367
:10E350000D948DFE01E20EBF0FEF0DBF11241FBE05
:10E360000D9460F30D9400F020E030E040ED57E0B4
:10E3700005C0FA013197F1F72F5F3F4F2817390792
:10E38000C0F308959C01260F311DC901A0E0B0E043
:10E390002F5F3F4FABBFFC018791882361F08093D3
:10E3A000C6008091C00086FFFCCF8091C0008064D1
:10E3B0008093C000EACF08958DE08093C6008091DD
:10E3C000C00086FFFCCF8091C00080648093C000B5
:10E3D0008AE08093C6008091C00086FFFCCF8091C8
:10E3E000C00080648093C00008950F94C2F10F9420
:10E3F000DCF10895FC019081992359F09093C600B7
:10E400008091C00086FFFCCF8091C0008064809323
:10E41000C0003196992379F70895282F982F929567
:10E420009F70892F805D8A3308F0895F8093C600D2
:10E430008091C00086FFFCCF8091C00080648093F3
:10E44000C000822F8F70982F905D9A3308F0995FEB
:10E450009093C6008091C00086FFFCCF8091C000E1
:10E4600080648093C00008959C01FB01853691056E
:10E470001CF46330710594F0C90164E670E00F94F8
:10E480002EFE605D7F4F6093C6008091C00086FFC6
:10E49000FCCF8091C00080648093C0002B30310598
:10E4A00014F43297B4F0C90164E670E00F942EFEC4
:10E4B0006AE070E00F942EFE605D7F4F6093C600AF
:10E4C0008091C00086FFFCCF8091C0008064809363
:10E4D000C000C9016AE070E00F942EFEC0968093E0
:10E4E000C6008091C00086FFFCCF8091C000806490
:10E4F0008093C00008951F93182F8EE692EE60E07F
:10E500000F94C2F11093C6008091C00086FFFCCF2B
:10E510008091C00080648093C0000F94DCF11F9153
:10E5200008952F923F924F925F926F927F928F92B7
:10E530009F92AF92BF92CF92DF92EF92FF920F9392
:10E540001F93DF93CF93CDB7DEB762970FB6F894E2
:10E55000DEBF0FBECDBF382E622ECA01DB015C01CB
:10E560006D01772420E2222E2E010894411C511CBB
:10E570008BC081E0A81680E0B80681E0C80680E084
:10E58000D80628F0C601AA27BB270F940DF2BB2797
:10E59000AD2D9C2D8B2D0F940DF28A2D0F940DF225
:10E5A0002092C6008091C00086FFFCCF8091C00001
:10E5B00080648093C0009DE29093C6008091C0006B
:10E5C00086FFFCCF8091C00080648093C0002092C1
:10E5D000C6008091C00086FFFCCF8091C00080649F
:10E5E0008093C00019828601750188249924A1E0D6
:10E5F0003A1651F03A1620F0B2E03B1661F409C029
:10E600000BBFF701779007C0C7010F9477FE782EF4
:10E6100002C0F7017080872D0F940DF22092C60082
:10E620008091C00086FFFCCF8091C0008064809301
:10E63000C000872D8052F401EF70F0708F3520F408
:10E64000E40DF51D708204C0E40DF51D8EE280839B
:10E650000894E11CF11C011D111D0894811C911CE2
:10E6600090E18916910409F0C2CF80E190E0A0E02A
:10E67000B0E0A80EB91ECA1EDB1E198AC2010F9493
:10E68000FAF10F94DCF16A94662009F072CF629679
:10E690000FB6F894DEBF0FBECDBFCF91DF911F91B3
:10E6A0000F91FF90EF90DF90CF90BF90AF909F9031
:10E6B0008F907F906F905F904F903F902F90089534
:10E6C0002F923F924F925F926F927F928F929F9282
:10E6D000AF92BF92CF92DF92EF92FF920F931F9370
:10E6E000DF93CF93CDB7DEB7CD53D1400FB6F894BB
:10E6F000DEBF0FBECDBF01E20EBF0FEF0DBF94B75F
:10E70000F894A89514BE80916000886180936000A1
:10E7100010926000789493FF05C0E0910002F091A0
:10E7200001021995279A2F9A8091C00082608093E8
:10E73000C00080E18093C40088E18093C1000000A4
:10E74000EE24FF24870144E0A42EB12CCC24DD2448
:10E7500024C0C5010197F1F70894E11CF11C011DCB
:10E76000111D21E2E2162EE4F20620E0020720E06D
:10E77000120718F031E0C32ED12CC801B70127ECE5
:10E780003BE140E050E00F9441FE611571058105C9
:10E79000910519F485B1805885B98091C00087FD35
:10E7A00003C0C114D104A9F2A6014F5F5F4FC25E3E
:10E7B000DE4F59834883CE51D140C25EDE4F8881FF
:10E7C0009981CE51D140019711F00D9410FEC05D9A
:10E7D000DE4F19821882C053D14060E0C15DDE4F28
:10E7E0001882CF52D14088249924C35DDE4F19820C
:10E7F0001882CD52D140C05EDE4F188219821A8233
:10E800001B82C052D140CE5CDE4F188219821A8220
:10E810001B82C253D140EE24FF2487010BBFF701B6
:10E8200007911691C45CDE4F19830883CC53D14005
:10E830000D940BFEC25EDE4F28813981CE51D1404E
:10E840002130310509F52091C600C25EDE4F1982E4
:10E850001882CE51D14022C02F5F3F4F4F4F5F4FA4
:10E86000213082E138078AE7480780E0580780F0C6
:10E87000C45CDE4FE881F981CC53D140EF5FFF4F9C
:10E8800019F0EE27FF27099420E030E040E050E047
:10E890008091C00087FFE0CF2091C600C35DDE4FAE
:10E8A00048815981CD52D1404F5F5F4FC35DDE4FEC
:10E8B00059834883CD52D140213209F063C64A3092
:10E8C000510508F05FC60894811C911C53E0851621
:10E8D000910409F059C600E010E018C081E280936D
:10E8E000C6008091C00086FFFCCF8091C00080648C
:10E8F0008093C0002F5F3F4F2931310579F70F9486
:10E90000DCF10F5F1F4F0530110519F020E030E0FA
:10E91000E5CF10920A0210920B0210920C02109294
:10E920000D02109206021092070210920802109235
:10E930000902109202021092030210920402109235
:10E9400005028FEE90EE60E00F94F5F180E191EE1C
:10E9500060E00F94C2F18091C00087FFFCCF9091DE
:10E96000C600903608F09F759032B8F09093C600BC
:10E970008091C00086FFFCCF8091C00080648093AE
:10E98000C000A0E2A093C6008091C00086FFFCCF2B
:10E990008091C00080648093C000983409F4D7C18E
:10E9A0009934B8F4923409F459C1933458F490333B
:10E9B00019F1903308F4E3C59F33A1F1903409F0C5
:10E9C000DEC5BDC0953409F470C1963409F0D7C5D1
:10E9D00098C1923509F42BC2933538F49C3409F46C
:10E9E000F5C1913509F0CBC518C2963509F445C279
:10E9F000993509F0C4C567C483E792EE62E00F94CD
:10EA0000F5F110920602109207021092080210927D
:10EA1000090210920A0210920B0210920C0210923C
:10EA20000D0213C18FE792EE62E00F94F5F18FEEC5
:10EA300090EE60E00F94F5F181E291EE60E00F94CA
:10EA4000C2F187EB91EE60E00F94F5F180E391EE77
:10EA500060E00F94C2F184EE90EE60E00F94F5F167
:10EA60008FE391EE60E00F94C2F186E090E061E008
:10EA700070E00F9434F20F94DCF18DE591EE60E0DC
:10EA80000F94C2F189EC91EE60E00F94F5F18EE401
:10EA900091EE60E00F94C2F183EC91EE60E00F9490
:10EAA000F5F18CE691EE60E00F94C2F18EE10F94E7
:10EAB0000DF288E90F940DF281E00F940DF20F949E
:10EAC000DCF18BE791EE60E00F94C2F119E0E0E039
:10EAD000F0E010935700E4918E2F0F940DF20F94F5
:10EAE000DCF18AE891EE60E00F94C2F1E3E0F0E03F
:10EAF00010935700E4918E2F0F940DF20F94DCF1D8
:10EB000089E991EE60E00F94C2F1E2E0F0E0109349
:10EB10005700E4918E2F0F940DF20F94DCF188EAE8
:10EB200091EE60E00F94C2F1E1E0F0E01093570045
:10EB30001491812F0F940DF20F94DCF107CF8BE825
:10EB400092EE62E00F94F5F18BE492EE60E00F94A8
:10EB5000F5F10F94DCF100E010E019C0C8016F2D51
:10EB60000F947FFEFF2031F489E492EE60E00F9471
:10EB7000C2F10BC0F092C6008091C00086FFFCCFAE
:10EB80008091C00080648093C0000F5F1F4FC80158
:10EB900081519F41A0E0B0E0ABBFFC01F790BAE229
:10EBA000FB1621F0E2E000301E07C1F60F94DCF105
:10EBB0000F94DCF187E592EE60E00F94F5F10F948D
:10EBC000DCF1CC24DD2400E010E01EC0C8010F946D
:10EBD00077FEF82E882331F489E492EE60E00F94FA
:10EBE000C2F10BC08093C6008091C00086FFFCCFAD
:10EBF0008091C00080648093C000FE1419F00894D6
:10EC0000C11CD11C0F5F1F4FC80181519F41A0E063
:10EC1000B0E0ABBFFC01E790FAE2EF1621F022E092
:10EC20000030120799F60F94DCF10F94DCF182E6C4
:10EC300092EE60E00F94C2F1C60161E070E00F94C3
:10EC400034F20F94DCF10F94DCF110920202109276
:10EC50000302109204021092050278CE89E992EE26
:10EC600062E00F94F5F1279A2F9A16C02F9880E052
:10EC700090E0E0EDF7E03197F1F7019684369105E9
:10EC8000C1F72F9A80E090E0E0EDF7E03197F1F7DF
:10EC9000019684369105C1F78091C00087FFE6CFC9
:10ECA0008091C00087FFFCCF64C485EA92EE62E0E9
:10ECB0000F94F5F140910202509103026091040219
:10ECC0007091050281E020E10F9491F2809102029F
:10ECD00090910302A0910402B091050280509F4FD1
:10ECE000AF4FBF4F8093020290930302A0930402A0
:10ECF000B093050280509041A040B04008F426CE69
:10ED0000A4CF83EB92EE62E00F94F5F140910602FE
:10ED100050910702609108027091090280E020E1A1
:10ED20000F9491F28091060290910702A09108023F
:10ED3000B091090280509F4FAF4FBF4F80930602A2
:10ED400090930702A0930802B0930902FFCD80ECD4
:10ED500092EE62E00F94F5F183E792EE60E00F949B
:10ED6000F5F18FE792EE60E00F94F5F18BE892EE0B
:10ED700060E00F94F5F189E992EE60E00F94F5F10F
:10ED800085EA92EE60E00F94F5F183EB92EE60E09D
:10ED90000F94F5F180EC92EE60E00F94F5F187ECC2
:10EDA00092EE60E00F94F5F188ED92EE60E00F9442
:10EDB000F5F18FED92EE60E00F94F5F18AEE92EEB0
:10EDC00060E00F94F5F183E093EEBDCD87EC92EE19
:10EDD00062E00F94F5F181E40F947BF282E40F94EA
:10EDE0007BF283E40F947BF284E40F947BF285E45E
:10EDF0000F947BF286E40F947BF287E40F947BF20E
:10EE000088E40F947BF28AE40F947BF28BE40F94F6
:10EE10007BF28CE40F947BF299CD88ED92EE62E068
:10EE20000F94F5F1772473948824992409C48FED05
:10EE300092EE62E00F94F5F140910A0250910B02BC
:10EE400060910C0270910D0282E020E10F9491F22A
:10EE500080910A0290910B02A0910C02B0910D02D8
:10EE600080509F4FAF4FBF4F80930A0290930B0289
:10EE7000A0930C02B0930D0269CD8AEE92EE62E08F
:10EE80000F94F5F184EE90EE60E00F94F5F18FECC5
:10EE900091EE60E00F94F5F1662477244301CC5D98
:10EEA000DE4F19821882C452D140D401C301B695F5
:10EEB000A79597958795CA5DDE4F88839983AA8326
:10EEC000BB83C652D140CC5DDE4FA881B981C4520C
:10EED000D1401196CC5DDE4FB983A883C452D14096
:10EEE000CD0162E070E00F9434F2B0E2B093C6005E
:10EEF0008091C00086FFFCCF8091C0008064809329
:10EF0000C000EDE2E093C6008091C00086FFFCCF18
:10EF10008091C00080648093C000F0E2F093C6004E
:10EF20008091C00086FFFCCF8091C00080648093F8
:10EF3000C000CA5DDE4FE880F9800A811B81C6529D
:10EF4000D140BB27A12F902F8F2D0F940DF2CA5DBA
:10EF5000DE4F8881C652D1400F940DF2B0E2FB2EF5
:10EF6000F092C6008091C00086FFFCCF8091C00067
:10EF700080648093C0000DE30093C6008091C000C0
:10EF800086FFFCCF8091C00080648093C00010E2B7
:10EF90001093C6008091C00086FFFCCF8091C00016
:10EFA00080648093C0008BBEF3012791C65DDE4F65
:10EFB0002883CA52D140A22EBB24CC24DD2408943D
:10EFC000611C711C811C911C8BBEF3018791282E42
:10EFD0003324442455240894611C711C811C911C09
:10EFE0008BBEF3013791C55DDE4F3883CB52D140E4
:10EFF0000894611C711C811C911C8BBEF30147910C
:10F00000C45DDE4F4883CC52D140ADEFEA2EAFEF66
:10F01000FA2EAFEF0A2FAFEF1A2F6E0C7F1C801E57
:10F02000911E142D032DF22CEE24EA0CFB1C0C1D5A
:10F030001D1D0F940DF220E22093C6008091C000A8
:10F0400086FFFCCF8091C00080648093C000C65DC5
:10F05000DE4F8881CA52D1400F940DF230E23093D6
:10F06000C6008091C00086FFFCCF8091C000806404
:10F070008093C000C45DDE4F8881CC52D1400F9494
:10F080000DF240E24093C6008091C00086FFFCCFA5
:10F090008091C00080648093C000C55DDE4F888190
:10F0A000CB52D1400F940DF250E25093C6008091A4
:10F0B000C00086FFFCCF8091C00080648093C000B8
:10F0C0008FEFE8168FEFF80680E0080780E018075A
:10F0D00031F484E092EE60E00F94C2F1DFC0D80119
:10F0E000C7018070907CA070B0708050904CA040A0
:10F0F000B040D1F52FEF3FE340E050E0E222F322B1
:10F1000004231523CA5DDE4FA880B980CA80DB8046
:10F11000C652D140AE0CBF1CC01ED11EAA0CBB1CD7
:10F12000CC1CDD1C8EE092EE60E00F94C2F1BB2798
:10F13000A12F902F8F2D0F940DF28E2D0F940DF285
:10F1400030E23093C6008091C00086FFFCCF8091F2
:10F15000C00080648093C0004EE34093C60080915D
:10F16000C00086FFFCCF87C08EE09EEFA0E0B0E03D
:10F17000E822F9220A231B239CE0E91694E9F90608
:10F1800090E0090790E0190709F088C0C45DDE4FE0
:10F19000A881CC52D140EA2EFF2400E010E0102FCD
:10F1A0000F2DFE2CEE24C55DDE4FB881CB52D14031
:10F1B000EB0EF11C011D111DD601C501817090706F
:10F1C000A070B070DC0199278827E80EF91E0A1F8D
:10F1D0001B1F20EF30E040E050E0A222B322C42207
:10F1E000D52241E1AA0CBB1CCC1CDD1C4A95D1F7F1
:10F1F000EA0CFB1C0C1D1D1D81E090E0A0E0B0E0BE
:10F20000282239224A225B2235E1220C331C441C7D
:10F21000551C3A95D1F7E20CF31C041D151D57013E
:10F220006801AA0CBB1CCC1CDD1C85E192EE60E0E1
:10F230000F94C2F1C801AA27BB270F940DF2BB2778
:10F24000A12F902F8F2D0F940DF28E2D0F940DF274
:10F2500090E29093C6008091C00086FFFCCF809121
:10F26000C00080648093C000AEE3A093C60080918C
:10F27000C00086FFFCCF8091C00080648093C000F6
:10F28000C601AA27BB270F940DF2BB27AD2D9C2DDD
:10F290008B2D0F940DF28A2D0F940DF20F94DCF14B
:10F2A000CC5DDE4FE881F981C452D140F99709F471
:10F2B0004DCBF4E0EF2EF12C012D112D6E0C7F1CA7
:10F2C000801E911EF2CD83E093EE62E00F94F5F183
:10F2D0008AE192EE60E00F94C2F18091C00087FF56
:10F2E000FCCF1091C6001F751093C6008091C0001E
:10F2F00086FFFCCF8091C00080648093C0000F9493
:10F30000DCF1812F81548A3108F036C1163409F4BA
:10F3100095C0173490F4133409F44EC0143430F40B
:10F320001134F1F0123409F01DC130C0143409F465
:10F3300059C0153409F016C16BC01A3409F4C4C0A1
:10F340001B3438F4173409F48FC0183409F00AC19B
:10F35000A1C01B3409F4D2C01C3409F003C1E8C0B9
:10F360008FEF81B90DC082B1809582B980E090E0C5
:10F37000E0EDF7E03197F1F70196883C9105C1F790
:10F380008091C00087FFEFCF12B8EFC08FEF84B934
:10F390000DC085B1809585B980E090E0E0EDF7E0A3
:10F3A0003197F1F70196883C9105C1F78091C00033
:10F3B00087FFEFCF15B8D9C08FEF87B90DC088B1DF
:10F3C000809588B980E090E0E0EDF7E03197F1F7C3
:10F3D0000196883C9105C1F78091C00087FFEFCF6F
:10F3E00018B8C3C08FEF8AB90DC08BB180958BB9A7
:10F3F00080E090E0E0EDF7E03197F1F70196883C8E
:10F400009105C1F78091C00087FFEFCF1BB8ADC059
:10F410008FEF8DB90DC08EB180958EB980E090E0F0
:10F42000E0EDF7E03197F1F70196883C9105C1F7DF
:10F430008091C00087FFEFCF1EB897C08FEF80BBD1
:10F440000DC081B3809581BB80E090E0E0EDF7E0F6
:10F450003197F1F70196883C9105C1F78091C00082
:10F4600087FFEFCF11BA81C08FEF83BB0DC084B38C
:10F47000809584BB80E090E0E0EDF7E03197F1F714
:10F480000196883C9105C1F78091C00087FFEFCFBE
:10F4900014BA6BC08FEF809301010FC080910201FD
:10F4A00080958093020180E090E0E0EDF7E03197F5
:10F4B000F1F70196883C9105C1F78091C00087FF64
:10F4C000EDCF1092020151C08FEF809304010FC065
:10F4D0008091050180958093050180E090E0E0ED4A
:10F4E000F7E03197F1F70196883C9105C1F78091DB
:10F4F000C00087FFEDCF1092050137C08FEF8093DA
:10F5000007010FC08091080180958093080180E079
:10F5100090E0E0EDF7E03197F1F70196883C910536
:10F52000C1F78091C00087FFEDCF109208011DC088
:10F530008FEF80930A010FC080910B01809580931B
:10F540000B0180E090E0E0EDF7E03197F1F70196F4
:10F55000883C9105C1F78091C00087FFEDCF1092E4
:10F560000B0103C085E292EEEEC98091C00087FFD7
:10F57000FCCF8091C600EAC988E392EEE4C98CE131
:10F5800091EEE1C988249924933011F1943028F444
:10F59000913089F09230B8F408C0953061F195301F
:10F5A000F0F0963009F048C043C02B3109F042C951
:10F5B00091E06BE13FC96227C15DDE4F2883CF52E6
:10F5C000D14092E037C9B22FA0E0622793E032C960
:10F5D000822F90E0A82BB92B622794E02BC92E3004
:10F5E00009F039C3622795E0C05DDE4F19821882A9
:10F5F000C053D1401FC9E1E0F0E0EC0FFD1FC05D3A
:10F60000DE4F08811981C053D140E00FF11F2083E4
:10F610000F5F1F4FC05DDE4F19830883C053D14079
:10F6200062270A171B0709F005C9D80196E002C92D
:10F63000261709F010C303C0973009F0FBC87724E0
:10F640009981933109F412C19431C8F4963009F4C8
:10F65000D8C0973050F4923009F406C1933009F4C1
:10F660006DC0913009F059C253C0913109F477C08F
:10F67000923108F0BBC0903109F04FC2F5C098310B
:10F6800009F487C0993150F4953109F4EFC09531F0
:10F6900008F4C6C1963109F040C2C2C19A3109F4DA
:10F6A0006CC09A3108F491C09B3109F45BC09D3164
:10F6B00009F033C29D81903359F48F81882311F46E
:10F6C0009EE11CC0813011F091E018C098E916C08D
:10F6D000892F807591F0903539F4E0E0F0E089E011
:10F6E0008093570094910AC0983539F4E3E0F0E034
:10F6F00089E080935700949101C090E01A821B82A8
:10F700008D818C831D829E831F8227E030E009C299
:10F710001A8288E08B8381E48C8386E58D8382E581
:10F720008E8389E48F8383E5888780E589878FE5E9
:10F730008A8782E38B872BE030E0F3C18A818139AD
:10F7400041F0823941F0803911F48FE005C080E04A
:10F7500003C082E001C08AE01A828B8344C0772410
:10F76000739482C08D81882311F48EE12CC0813086
:10F7700011F081E028C088E926C01A82E1E0F0E0BB
:10F7800089E08093570084918B831C8224E030E0D1
:10F79000C8C18B81803589F48C81883039F4E2E0EE
:10F7A000F0E089E08093570084910DC0E0E0F0E044
:10F7B00089E080935700849106C0E3E0F0E089E09F
:10F7C0008093570084911A82DFCF8D81836C99E0FA
:10F7D000E1E0F0E0082E90935700E89507B600FCB2
:10F7E000FDCF1A821B8223E030E09BC180EC8A832C
:10F7F000CE5CDE4F188219821A821B82C253D1401E
:10F800008EC18A8190E0A0E0B0E0582F44273327D2
:10F8100022278B8190E0A0E0B0E0DC0199278827C7
:10F82000282B392B4A2B5B2B8D8190E0A0E0B0E098
:10F83000282B392B4A2B5B2B8C8190E0A0E0B0E089
:10F84000BA2FA92F982F8827282B392B4A2B5B2BCF
:10F85000220F331F441F551FC05EDE4F288339839C
:10F860004A835B83C052D1401A8259C13A81C95C34
:10F87000DE4F3883C753D140CA5CDE4F1882C6536F
:10F88000D1408B81C82EDD24CA5CDE4F488159816E
:10F89000C653D140C42AD52A933109F082C0CE5C28
:10F8A000DE4F88819981AA81BB81C253D1408050AB
:10F8B000904CA340B04030F583E0CE5CDE4FE88052
:10F8C000F9800A811B81C253D140F70100935B008C
:10F8D00080935700E89507B600FCFDCFCE5CDE4F65
:10F8E000088119812A813B81C253D14000501F4FAA
:10F8F0002F4F3F4FCE5CDE4F088319832A833B8313
:10F90000C253D140C05EDE4F488159816A817B81FC
:10F91000C052D140DE011B9631E08C9111962C91A2
:10F9200011971296C75CDE4F2883C953D140C85C3B
:10F93000DE4F1882C853D14090E0C85CDE4FE881AA
:10F94000F981C853D1408E2B9F2B0C01FA01609393
:10F950005B0030935700E89511244E5F5F4F6F4F67
:10F960007F4F0EEFE02E0FEFF02ECE0CDF1CC114F8
:10F97000D10499F685E0C05EDE4F088119812A81A5
:10F980003B81C052D140F80120935B008093570027
:10F99000E89507B600FCFDCF81E180935700E8951C
:10F9A00035C0C05EDE4F88819981AA81BB81C0527B
:10F9B000D140B695A795979587957C018601ABE0D8
:10F9C000AA2EB12CAC0EBD1E0BC0D5016D915D01F0
:10F9D000C7010F947FFE0894E11CF11C01501040F8
:10F9E0000115110591F7A60160E070E0440F551F65
:10F9F000661F771FC05EDE4FE880F9800A811B8199
:10FA0000C052D1404E0D5F1D601F711F1A82C05E33
:10FA1000DE4F488359836A837B83C052D1407FC0C5
:10FA2000FA80C55CDE4FF882CB53D140C65CDE4F16
:10FA30001882CA53D1408B81C82EDD24C65CDE4FAC
:10FA400008811981CA53D140C02AD12A1A828981DA
:10FA5000BE016D5F7F4F843121F59601C05EDE4FA0
:10FA6000E880F9800A811B81C052D1400BBFF701A9
:10FA700087919691DB018C9311969C936E5F7F4FDB
:10FA8000D801C7010296A11DB11DC05EDE4F88835B
:10FA90009983AA83BB83C052D14022503040F1F6F3
:10FAA00036C0C05EDE4F288139814A815B81C052F9
:10FAB000D1400894C108D108760100E010E0089414
:10FAC000C11CD11C0894E11CF11C011D111DE20E8A
:10FAD000F31E041F151F21BDBB27A52F942F832FB5
:10FAE00082BD2F5F3F4F4F4F5F4FF89A80B5DB01CC
:10FAF0008D93BD012E153F054007510761F7C05E8C
:10FB0000DE4F288339834A835B83C052D1409601FC
:10FB10002D5F3F4FFB01108204C080EC8A8322E0FE
:10FB200030E08BE18093C6008091C00086FFFCCF5F
:10FB30008091C00080648093C000C15DDE4FF88179
:10FB4000CF52D140F093C6008091C00086FFFCCF19
:10FB50008091C00080648093C000432F3093C60022
:10FB60008091C00086FFFCCF8091C00080648093AC
:10FB7000C000922F2093C6008091C00086FFFCCF6A
:10FB80008091C00080648093C0008EE08093C600A6
:10FB90008091C00086FFFCCF8091C000806480937C
:10FBA000C00065E1C15DDE4FE880CF52D1406E25D7
:10FBB00069276427FE01319610C090819093C6009A
:10FBC0008091C00086FFFCCF31968091C000806498
:10FBD0008093C0006927215030402115310569F715
:10FBE0006093C6008091C00086FFFCCF8091C0006A
:10FBF00080648093C00085B1805885B9772081F4F6
:10FC0000C15DDE4F0881CF52D1400F5FC15DDE4F35
:10FC10000883CF52D14090E0A0E0B0E00D941AF4F8
:10FC200027982F9880E090E020ED37E0F901319798
:10FC3000F1F7019684369105C9F700008091C00064
:10FC40008D7F8093C00081E180935700E895EE2777
:10FC5000FF270994FFCF90E00D941AF497FB092E2B
:10FC600007260AD077FD04D02ED006D000201AF443
:10FC7000709561957F4F0895F6F7909581959F4F08
:10FC80000895A1E21A2EAA1BBB1BFD010DC0AA1FDD
:10FC9000BB1FEE1FFF1FA217B307E407F50720F0F5
:10FCA000A21BB30BE40BF50B661F771F881F991F70
:10FCB0001A9469F760957095809590959B01AC01B9
:10FCC000BD01CF010895AA1BBB1B51E107C0AA1FAC
:10FCD000BB1FA617B70710F0A61BB70B881F991FED
:10FCE0005A95A9F780959095BC01CD010895F99991
:10FCF000FECF92BD81BDF89A992780B50895262F31
:10FD0000F999FECF1FBA92BD81BD20BD0FB6F89400
:0EFD1000FA9AF99A0FBE01960895F894FFCF63
:00000001FF
