:100000000C9436010C9467010C9467010C94670101
:100010000C9467010C9467010C9467010C946701C0
:100020000C9467010C9467010C9467010C946701B0
:100030000C9467010C94EA0D0C9467010C94670111
:100040000C9467010C9467010C9467010C94670190
:100050000C9467010C9467010C9467010C94A00D3B
:100060000C9467010C9467010C9467010C94670170
:100070000C9467010C9467010C9467010C94670160
:100080000C9467010C9467010C9467010C94670150
:100090000C9467010C9467010C9467010C94670140
:1000A0000C9467010C9467010C9467010C94670130
:1000B0000C9467010C9467010C9467010C94670120
:1000C0000C9467010C9467010C9467010C94670110
:1000D0000C9467010C9467010C9467010C94670100
:1000E0000C9467010C94BA010C943E080C949F0682
:1000F0000C94AC010C949B060C94C7010C94A201C7
:100100000C94BE010C94C2010C948D010C94CC0192
:100110000C94B4010C9491010C94C8010C94D80572
:100120000C9474150C9497060C9495010C94B001E2
:100130000C949C010C943F080C94710D0C94A60136
:100140000C9487010C9499010000210024002700E1
:100150002A002D00300033000101000004010701D6
:100160000A01000020002300260029002C002F0097
:1001700032000001000003010601090100000A0B22
:1001800002090C0D0E080703040100000000000026
:10019000000000000000000000000000000000005F
:1001A000000000000000000012111000000000001C
:1001B000000000000000000000000000000000003F
:1001C000000001021020200808102040102040806C
:1001D000020102010804020101020408102040800B
:1001E0008040201008040201800402018040201099
:1001F00008040201080402010102040810204080E2
:100200000102040810204080000022002500280080
:100210002B002E003100340002010000050108010E
:100220000B0105050505070508080808020202027A
:100230000A0A080804040404010101010101010182
:100240000303030303030303040707070C0C0C0C4D
:100250000C0C0C0C02020202060606060606060636
:100260000B0B0B0B0B0B0B0B0200741511241FBE99
:10027000CFEFD1E2DEBFCDBF00E00CBF13E0A0E0C6
:10028000B2E0ECEEF0E300E00BBF02C007900D928D
:10029000AC31B107D9F725E0ACE1B3E001C01D9264
:1002A000A231B207E1F711E0C6E3D1E000E006C0F9
:1002B00021970109802FFE010E946C18C533D107D8
:1002C00080E00807A9F70E94890E0C9474180C941A
:1002D00000008150823108F05AC0E82FF0E08827F2
:1002E000EB58FE4F8F4F0C946C18950199018701C4
:1002F0008D019101C7019C01A201A601AC01B001D1
:10030000B401BA01BE01C701C201C801CC0180918C
:1003100080008F77809380000895809180008F7D8A
:10032000F9CF80918000877FF5CF84B58F7784BD2A
:10033000089584B58F7DFBCF8091B0008F77809337
:10034000B00008958091B0008F7DF9CF809190002A
:100350008F77809390000895809190008F7DF9CFE2
:1003600080919000877FF5CF8091A0008F77809358
:10037000A00008958091A0008F7DF9CF8091A0000A
:10038000877FF5CF809120018F778093200108959A
:10039000809120018F7DF9CF80912001877FF5CF5B
:1003A000CF93DF93282F30E0F901E458FE4F84917A
:1003B000F901EE53FE4FD491F901EE5DFD4FC4916A
:1003C000CC23A1F081110E946901EC2FF0E0EE0F27
:1003D000FF1FEE59FE4FA591B491EC91ED2381E002
:1003E00090E009F480E0DF91CF91089580E090E003
:1003F000FACF1F93CF93DF93282F30E0F901E45811
:10040000FE4F8491F901EE53FE4FD491F901EE5D58
:10041000FD4FC491CC23A9F0162F81110E946901D0
:10042000EC2FF0E0EE0FFF1FE85FFD4FA591B491B8
:100430008FB7F894EC91111108C0D095DE23DC93AE
:100440008FBFDF91CF911F910895DE2BF8CFFF92E0
:100450000F931F93CF93DF93082F162FF42EC22FE5
:10046000D8E06C2FF11015C06170802F0E94F90147
:10047000C69561E0812F0E94F90160E0812F0E9402
:10048000F901D15071F7DF91CF911F910F91FF903A
:100490000895661F6627661F802F0E94F901CC0F02
:1004A000E8CF0F931F93CF93DF931F921F92CDB787
:1004B000DEB769834A83880F991F0091F804109171
:1004C000F904000F111FE2EAF4E09F01225A3440C0
:1004D0002017310714F41192F8CF2981FC01EE5551
:1004E000FB4F21838A81808360E08091F6040E9423
:1004F000F9011016110674F401501109F801EE55B6
:10050000FB4F208141E06091F4048091F2040E944D
:100510002702EFCF61E08091F6040F900F90DF91FA
:10052000CF911F910F910C94F901EF92FF921F93BD
:10053000CF93DF932091F8043091F9048217930749
:10054000B4F4EC0123E0880F991F2A95E1F79C0190
:100550002E543B4F790111E0F70111927F0140E0E9
:10056000612FCE010E9451021F5F1930A9F7DF9160
:10057000CF911F91FF90EF900895E091F804F091D2
:10058000F9048E179F073CF56830710520F557FD7B
:1005900022C048305105F9F0E0E8F0E0DF0102C088
:1005A000B595A7954A95E2F7AD01FC0133E0EE0F52
:1005B000FF1F3A95E1F7E60FF71FEE55FB4F308925
:1005C000222331F0432B408B6F5F40890C94510202
:1005D00040954323F8CF0895CF93DF9390E0FC013B
:1005E000EE53FE4F24918E5D9D4FFC018491882334
:1005F000C9F090E0880F991FFC01E85BFE4FA591C0
:10060000B491FC01E85FFD4FC591D49161110DC01B
:100610009FB7F8948C91209582238C93888128230E
:1006200028839FBFDF91CF910895623051F49FB727
:10063000F8943C91822F809583238C93E8812E2B14
:10064000EFCF8FB7F894EC912E2B2C938FBFEACF7E
:100650004F925F926F927F928F929F92AF92BF92D2
:10066000CF92DF92EF92FF920F931F93CF938C0163
:100670004A015B01809134028A3199F08F3F09F47D
:100680006FC0CF911F910F91FF90EF90DF90CF90AF
:10069000BF90AF909F908F907F906F905F904F90A2
:1006A0000895E8E6F2E0C491C7FDEBCF61E08AE18E
:1006B0000E94EC022801712C612CCC23E9F09801F6
:1006C00050E040E0C23009F01FC128013A0160E962
:1006D00070ED83E090E00E94ED1669017A0181E0FF
:1006E000C81AD108E108F1088FEFC816D104E10457
:1006F000F10409F00CF495C168E478EE81E090E033
:10070000A30192010E94ED1669017A0181E0C81AE5
:10071000D108E108F108CC2309F4A1C1C23009F0E5
:1007200094C18FEFC816D104E104F10409F00CF470
:1007300094C164E274EF80E090E0A30192010E9412
:10074000ED1669017A0181E0C81AD108E108F108C3
:1007500085E09091B100987F892B8093B1009BC177
:100760008AE180933402E8E6F2E0C4918C2FCF3F17
:1007700009F487CFC23009F468C060F4CC2379F162
:10078000C13009F444C087FD7CCF61E08AE10E945A
:10079000EC0295CFC43009F499C008F478C0C53094
:1007A00091F710922001109221018091210188601F
:1007B0008093210180912101816080932101ECE3EC
:1007C000F2E0E491F0E0EE0FFF1FE85FFD4F85914E
:1007D0009491ECEDF1E0E491E093820467CF14BCD6
:1007E00015BC84B5826084BD85B5816085BDECE3B0
:1007F000F2E0E491F0E0EE0FFF1FE85FFD4F85911E
:100800009491ECEDF1E0E491E09389044FCF1092E4
:100810008000109281008091810088608093810027
:1008200080918100816080938100ECE3F2E0E491AB
:10083000F0E0EE0FFF1FE85FFD4F85919491ECED26
:10084000F1E0E491E093880431CF1092B00010926F
:10085000B1008091B00082608093B0008091B100BF
:1008600081608093B100ECE3F2E0E491F0E0EE0F00
:10087000FF1FE85FFD4F85919491909387048093CB
:100880008604ECEDF1E0E491E09385040FCF109243
:100890009000109291008091910088608093910067
:1008A00080919100816080939100ECE3F2E0E4910B
:1008B000F0E0EE0FFF1FE85FFD4F85919491ECEDA6
:1008C000F1E0E491E0938404C3E0F0CE1092A00044
:1008D0001092A1008091A10088608093A100809176
:1008E000A10081608093A100ECE3F2E0E491F0E0EC
:1008F000EE0FFF1FE85FFD4F85919491ECEDF1E065
:10090000E491E0938304D2CE60E072E18AE790E064
:100910000E94ED1669017A0181E0C81AD108E10848
:10092000F108C13039F480918100887F8160809323
:100930008100B1C0C33039F480919100887F81601B
:1009400080939100A8C0C43039F48091A100887FC1
:1009500081608093A1009FC0C53009F09CC0809148
:100960002101887F81608093210195C0C7BC2093BD
:100970009E0430939F044093A0045093A10480915F
:100980006E00826080936E007CCEC092B300209394
:10099000960430939704409398045093990480915F
:1009A00070008260809370006CCED0929900C092EB
:1009B00098002093920430939304409394045093AE
:1009C0009504809171008260809371005ACED0921C
:1009D000A900C092A80020938E0430938F04409306
:1009E0009004509391048091720082608093720011
:1009F00048CEC43061F3CCF2C53009F042CED0927B
:100A00002901C092280120938A0430938B044093DB
:100A10008C0450938D0480917300826080937300E6
:100A200030CE83E096CE62E17AE780E090E0A301E9
:100A300092010E94ED1669017A0181E0C81AD1087D
:100A4000E108F108C1E086E084CE8FEFC816D1043A
:100A5000E104F10409F03CF7C1E084E07ACE93E0D0
:100A60008FEFC816D104E104F10489F084F062E14B
:100A70007AE780E090E0A30192010E94ED166901FF
:100A80007A0181E0C81AD108E108F10894E085B53F
:100A9000887F892B85BDD801AA0FBB1FA5019401B2
:100AA0000E940C1728EE33E040E050E00E94171738
:100AB000C23009F46ACF0CF09CCFCC2309F456CF96
:100AC000C13009F0DECDD0928900C0928800209319
:100AD0009A0430939B0440939C0450939D0480910E
:100AE0006F00826080936F00CCCD3FB7F894809107
:100AF0007E0490917F04A0918004B091810426B57A
:100B0000A89B05C02F3F19F00196A11DB11D3FBF45
:100B1000BA2FA92F982F8827BC01CD01620F711D14
:100B2000811D911D42E0660F771F881F991F4A950E
:100B3000D1F708958F929F92AF92BF92CF92DF929A
:100B4000EF92FF924B015C010E9475056B017C01E5
:100B50000E9475056C197D098E099F09683E7340D6
:100B600081059105A8F321E0821A9108A108B10836
:100B700088EEC80E83E0D81EE11CF11C811491049C
:100B8000A104B10429F7FF90EF90DF90CF90BF90C0
:100B9000AF909F908F9008952FB7F89460917A044A
:100BA00070917B0480917C0490917D042FBF089507
:100BB000AF92BF92CF92DF92EF92FF920F931F936B
:100BC000CF93DF936C017B018B01040F151FEB01A9
:100BD0005E01AE18BF08C017D10759F06991D60160
:100BE000ED91FC910190F081E02DC6011995892BC2
:100BF00079F7C501DF91CF911F910F91FF90EF9091
:100C0000DF90CF90BF90AF900895CF93DF93DC013A
:100C100026E0629FA00DB11D112490965C934E9327
:100C20005F9721E091962C939197FC01E359FF4F38
:100C30000190F081E02DEC01C459DF4F288122237F
:100C400041F0309719F0DC01662329F0DF91CF9154
:100C500008953097D9F35C968C91DF91CF911994D8
:100C6000CF92DF92EF92FF920F931F93CF93DF9378
:100C7000EC01162F042FFC0186E0689FE00DF11DAA
:100C8000112411A2878D90A18130910509F180F086
:100C90008230910509F443C0039709F445C0DF9100
:100CA000CF911F910F91FF90EF90DF90CF9008951B
:100CB0004423A9F341E050E0CE010E9405060E94C2
:100CC000CC05C85ADF4F688379838A839B83E7CF3B
:100CD0000E94CC05FE01E85AFF4FC080D180E2801F
:100CE000F380AB01BC014C195D096E097F09729656
:100CF00080819181B0E0A0E084179507A607B7072F
:100D000070F442E050E0612FCE01DF91CF911F914E
:100D10000F91FF90EF90DF90CF900C94050643E089
:100D200050E00111BCCFEFCF50E040E0ECCF862F78
:100D3000642F0C94EC02862F642F0C94F901862FFB
:100D40000C94D0012F923F924F925F926F927F92BC
:100D50008F929F92AF92BF92CF92DF92EF92FF92CB
:100D60000F931F93CF93DF93CDB7DEB72C970FB6BA
:100D7000F894DEBF0FBECDBF9C878B8784599F4FF1
:100D80009A83898381E0A981BA818C930E94CC05E2
:100D9000EB85FC85E45AFF4FFC83EB8300811181D6
:100DA00022813381AB01BC01401B510B620B730BE1
:100DB000EB85FC85E859FF4F80819181B0E0A0E090
:100DC00084179507A607B70708F04FC110E0CB843A
:100DD000DC84F6E6CF0ED11CEB84FC8422E6E20E26
:100DE000F11CD6018C91181758F4D701ED91FC91A4
:100DF000E10FF11D62E080810E94EC021F5FF1CFE4
:100E0000312C4B845C84B7E64B0E511CEB84FC8484
:100E1000E4E6EE0EF11C812C912C540183942B8579
:100E20003C852E593F4F3A872987D2018C9138163D
:100E300008F063C0032D10E0D701ED91FC91E00FA5
:100E4000F11F61E080810E94EC02D701ED91FC91DD
:100E5000E00FF11F60E080810E94F901D501C4011B
:100E6000032C04C0880F991FAA1FBB1F0A94D2F736
:100E70009E838D83FC01E095F095F887EF83212C0C
:100E8000D6018C91281620F5622C712CA985BA8583
:100E9000ED91FC91E60DF71D80810E94D001660C5A
:100EA000771CEB85FC85E60DF71D892B51F48085B9
:100EB00091852D813E81822B932B9187808723946E
:100EC000DFCF80859185AF81B8858A239B23F5CFBD
:100ED000D701ED91FC91E00FF11F61E080810E944C
:100EE000F901F70180819181080F191F60E0D80195
:100EF0008C910E94EC02339498CF0B851C85C8011D
:100F0000CC9678012FEF3FEFF701478D50A1452B8D
:100F100021F4148E368F258F11A2F6E0EF0EF11C0E
:100F2000E816F90689F7A12C8B849C8420E6820EB2
:100F3000911C96E0392ED6018C91A81608F058C065
:100F4000B12C6A2C712CB4E06B0E711C660C771CF2
:100F5000EB85FC856E0E7F1ED2018C91B81608F0D1
:100F600045C0F301408151810B2C02C05695479535
:100F70000A94E2F7A89EC00111248B0D911DEB8508
:100F8000FC8560E0258D368D8217930709F472C0C9
:100F90006F5F36966A30B1F740FF26C0EB85FC855F
:100FA00070E060E0248D211119C0D401ED91FC9115
:100FB000E80FF91F4081369EF001379EF00D112495
:100FC0002B853C85E20FF31F448F968F858F10A2EF
:100FD000178E41E0C9010E94300606C06F5F7F4F47
:100FE00036966A307105F1F6B394B6CFA394A3CFC9
:100FF000D12CD80191968C918111D82E0A5F1F4F68
:10100000E016F106B1F70E94CC05EB81FC8160830C
:10101000718382839383DD2041F1AB85BC859196FA
:101020008C919197882309F15F968D919C9190976F
:101030000197D9F45C968C912C960FB6F894DEBF8C
:101040000FBECDBFDF91CF911F910F91FF90EF9019
:10105000DF90CF90BF90AF909F908F907F906F90D8
:101060005F904F903F902F900895E981FA81108210
:1010700080E0E2CF41708B859C85ADCF089590E0F4
:1010800080E0089560E081E30E94F90160E082E37E
:101090000C94F901CF93DF93D0E0C0E0CE010E9421
:1010A00095022196C830D105C9F7DF91CF910895F7
:1010B000CF9360E086E20E94F90160E085E20E9441
:1010C000F90160E084E20E94F901C091950361E0BA
:1010D00086E2CC2341F061E085E2C13021F0C230EC
:1010E00021F461E084E20E94F90160E083E20E9461
:1010F000F90160E082E20E94F90160E081E20E9471
:10110000F90180912503811127C061E083E20E94EB
:10111000F90160E089E10E94F90160E088E10E9444
:10112000F90160E087E10E94F9018091770488234A
:10113000E9F080917604811119C061E089E1CC2346
:1011400041F061E088E1C13021F0C23079F461E022
:1011500087E1CF910C94F901813019F461E082E2CA
:10116000D6CF8230B1F661E081E2D1CFCF91089540
:101170008330910511F184309105A1F10297B1F00E
:1011800044E650E060E070E088EE93E00E942803BF
:1011900066E970E080E090E00E949A054CE251E040
:1011A00060E070E08CED95E00C94280342E350E0A1
:1011B00060E070E080ED97E0F7CF44E650E060E05B
:1011C00070E080E293E00E94280364E670E080E033
:1011D00090E00E949A0544E650E060E070E080E212
:1011E00093E0E2CF4CE251E060E070E084EF91E008
:1011F0000E9428036CE271E080E090E00E949A0572
:1012000040E951E060E070E08CE291E0CDCF60E039
:101210008AE00E94F90120E040E06BE08CE00E944F
:1012200027022FEF40E06BE08CE00E94270261E094
:101230008AE00C94F901EF92FF920F931F93CF93E2
:10124000DF939091770480917504811106C091110C
:1012500004C080917604882341F180910504C0E1A7
:10126000D2E0882351F0C8E1D2E0813031F0C0E013
:10127000D2E0823011F0C8E0D2E09923C1F0809131
:101280007604811114C00E94CC0524EF31E040E0C7
:1012900050E00E94171720FD0AC0DF91CF911F91E7
:1012A0000F91FF90EF900C940709C0E1D2E02896CF
:1012B00007E010E0EE24E394F12C60E08AE00E9465
:1012C000F9019701002E01C0220F0A94EAF740E0CD
:1012D0006BE08CE00E9427022A91209540E06BE0B1
:1012E0008CE00E94270261E08AE00E94F90162E03E
:1012F00070E080E090E00E949A0501501109E8F644
:10130000DF91CF911F910F91FF90EF900895809101
:1013100095032091250330E050E040E0280F311D77
:10132000411D511DA0E3B5E70E940C17605A75419D
:101330008F4F9F4F6093300270933102809332023F
:1013400090933302089580910504813079F040F044
:10135000823089F0833091F00E9458080C948709FC
:1013600081E08093250380939503F6CF8093250336
:1013700010929503F1CF10922503FACF82E0F1CFBE
:101380008F929F92AF92BF920F931F93CF93DF9351
:10139000CDB7DEB7A1970FB6F894DEBF0FBECDBFB5
:1013A00019A2423008F44AE08E010F5D1F4F842ECF
:1013B000912CB12CA12CA50194010E941717E62FA6
:1013C000B901CA01EA3044F5E05DD801EE938D0120
:1013D000232B242B252B79F790E080E0109769F0E0
:1013E000FD0101900020E9F73197AF014A1B5B0B2B
:1013F000BD018AEF94E00E94D805A1960FB6F8943B
:10140000DEBF0FBECDBFDF91CF911F910F91BF9077
:10141000AF909F908F900895E95CD7CF009769F0C7
:10142000FC0101900020E9F73197AF01481B590BEF
:10143000BC018AEF94E00C94D80590E080E0089518
:10144000CF93DF93EC0160E08E810E94F90161E0AF
:101450008E810E94F90160E08E810E94F9018BE883
:1014600091E00197F1F7DF91CF910895CF92DF924C
:10147000EF92FF920F931F93CF93DF936C017C0148
:1014800087E0E80EF11CD0E0C0E0062F10E0B801C4
:101490000C2E02C0759567950A94E2F76170F7010A
:1014A00081917F010E94F9012196C430D10579F71D
:1014B000C601DF91CF911F910F91FF90EF90DF90C8
:1014C000CF900C94200ACF92DF92EF92FF920F936D
:1014D0001F93CF93DF93EC01F62E642F8C810E9433
:1014E000F9018D818F3F19F060E00E94F9010F2D05
:1014F00010E08F8584FF25C06E0187E0C80ED11CE7
:10150000F12CE12CB8010E2C02C0759567950A9458
:10151000E2F76170F60181916F010E94F901FFEF1E
:10152000EF1AFF0A88E0E816F10461F7CE01DF91B7
:10153000CF911F910F91FF90EF90DF90CF900C947F
:10154000200AB80184E0759567958A95E1F7CE0188
:101550000E94360A6F2DCE01DF91CF911F910F911E
:10156000FF90EF90DF90CF900C94360A40E0682F08
:101570008AEF94E00C94630A81E00E94B60A8BE340
:101580009FE10197F1F70895CF93DF93823029F41B
:101590009091090598609093090580930D0510922C
:1015A0000E0580E480930F0580E18093100580E5AF
:1015B0008093110561E08091FE040E94EC0280910D
:1015C000FF048F3F19F061E00E94EC0261E080911E
:1015D00000050E94EC02CAEFD4E09E012A5F34406D
:1015E0008091090584FD0BC084E090E021962817C6
:1015F000390744F461E08E810E94EC02EECF88E06E
:1016000090E0F4CF8BE39DE00197F1F760E08091EB
:10161000FE040E94F90160E0809100050E94F9013A
:101620008091FF048F3F19F060E00E94F9018091E2
:10163000090584FD34C063E08AEF94E00E94360A15
:10164000CBE4D6E4CE010197F1F763E08AEF94E0B2
:101650000E94360A2197F1F763E08AEF94E00E9436
:10166000360A83E592E00197F1F762E08AEF94E0B1
:101670000E94360A8091090580620E94B60A84E0C1
:1016800080930A058CE00E94B60A0E94BC0A82E0A0
:1016900080930B0586E0DF91CF910C94B60A8062AF
:1016A0000E94B60A8BE496E40197F1F78091090550
:1016B00080620E94B60A83E592E00197F1F780917B
:1016C000090580620E94B60AD5CF90910D05691771
:1016D00010F06FEF690FE62FF0E0E650FB4F9489B2
:1016E000890F80680C94B60A809175048823E9F00C
:1016F00061E080E00E94650B83E592E00E940E0AA3
:1017000080910504811104C08AE592E00C940E0AD0
:10171000813019F486E692E0F9CF823019F482E73D
:1017200092E0F4CF8EE792E0F1CF80912002811118
:1017300042C080917704882321F080917604882329
:10174000D1F161E080E00E94650B8AE892E00E949E
:101750000E0A8091950381111EC08DE892E00E94CF
:101760000E0A8CE992E00E940E0A809125038111F5
:101770001AC08DE892E00E940E0A809177048111D0
:101780001AC080917604811116C060E00E94650B3A
:101790008FE992E0BBCF813019F482E992E0DFCF8C
:1017A00087E992E0DCCF813019F482E992E0E3CF5F
:1017B00087E992E0E0CF08950E94BC0AEAEFF4E0E6
:1017C00080898B7F808B88600E94B60A0E944208C5
:1017D0000E944A0860E086E20E94F90160E085E22A
:1017E0000E94F90160E084E20E94F90160E083E276
:1017F0000E94F90160E082E20E94F90160E081E26A
:101800000E94F901109277041092760481E080938F
:1018100020021092950310922503109205040E9455
:1018200087090C9407090F931F93CF938EE20E94B0
:10183000D001892B99F180917804882379F18091E6
:101840007704882321F080917604882339F162E3BC
:1018500070E080E090E00E949A058EE20E94D00144
:10186000892BE1F0C091750481E0C827C09375040D
:1018700082E090E00E94B808CC2309F493C00E9453
:10188000BC0A80EB92E00E940E0A0E94A3090E940B
:10189000740B8EE20E94D001892BD9F780E30E945D
:1018A000D001892B09F44DC062E370E080E090E044
:1018B0000E949A0580E30E94D001892B09F441C05F
:1018C00080917804811175C081E08093780481E073
:1018D00090E00E94B80880910A05982F9460909338
:1018E0000A058C600E94B60A0E94BC0A8AEC92E04B
:1018F0000E940E0A61E085E00E94650B87ED92E090
:101900000E940E0A6CED75E080E090E00E949A055E
:10191000109220020E94BC0A8FE992E00E940E0AF7
:101920001092050410922503109295030E948709D6
:101930000E94740B0E94580880E30E94D001892BFA
:10194000D9F78FE20E94D001892B09F46BC08091F6
:101950007804882309F466C062E370E080E090E0D8
:101960000E949A058FE20E94D001892B09F45AC087
:1019700083E090E00E94B8088091770481112BC029
:1019800081E080937704109276040E94CC056093E6
:1019900021037093220380932303909324030E94D6
:1019A000BC0A3BC00E94BC0A8CEB92E00E940E0A6B
:1019B0006ECF80917704882329F080917604882364
:1019C00009F4BACF84E090E00E94B808109278043D
:1019D0000E94DC0BB1CF8091760491E0892780933F
:1019E0007604882319F10E9442080E944A080E9446
:1019F000CC0560931C0370931D0380931E0390938A
:101A00001F030E94BC0A60E080E00E94650B8DED20
:101A100092E00E940E0A0E94740B8FE20E94D00195
:101A2000892BD9F7CF911F910F9108950E94CC0572
:101A3000AB01BC018091210390912203A09123036B
:101A4000B091240300911C0310911D0320911E03EB
:101A500030911F03801B910BA20BB30B840F951FBA
:101A6000A61FB71F8093210390932203A093230303
:101A7000B093240394CF8F929F92AF92BF92CF9254
:101A8000DF92EF92FF92CF934B015C010E94CC0555
:101A90006B017C010E94CC056C197D098E099F09A0
:101AA000681579058A059B05C0F40E94130CC09146
:101AB0007804C1110E941B098091760481110FC026
:101AC000C111E8CF8C2FCF91FF90EF90DF90CF9096
:101AD000BF90AF909F908F900895C1E0F3CFC0E08A
:101AE000F1CF41E00E94630A81E090E00895CF9237
:101AF000DF92EF92FF926C01990FEE08FF08F7FE5C
:101B000016C041E06DE28AEF94E00E94630A662706
:101B10007727CB016C197D098E099F094AE00E9445
:101B2000C0090196FF90EF90DF90CF9008954AE0B2
:101B3000C701B601FF90EF90DF90CF900C94C009E1
:101B40001F920F920FB60F9211242F933F938F93F2
:101B50009F93AF93BF9380917A0490917B04A0915F
:101B60007C04B0917D043091790423E0230F2D375C
:101B700058F50196A11DB11D2093790480937A0434
:101B800090937B04A0937C04B0937D0480917E04A9
:101B900090917F04A0918004B09181040196A11DD1
:101BA000B11D80937E0490937F04A0938004B09332
:101BB0008104BF91AF919F918F913F912F910F9091
:101BC0000FBE0F901F90189526E8230F0296A11DB7
:101BD000B11DD2CF1F920F920FB60F9211240BB6E8
:101BE0000F922F933F934F935F936F937F938F93B6
:101BF0009F93AF93BF93EF93FF938091960490913F
:101C00009704A0919804B0919904892B8A2B8B2B6F
:101C1000E1F190918504E0918604F0918704808140
:101C2000892780838091960490919704A0919804CD
:101C3000B0919904181619061A061B069CF4809197
:101C4000960490919704A0919804B09199040197FB
:101C5000A109B1098093960490939704A0939804E6
:101C6000B0939904FF91EF91BF91AF919F918F91A4
:101C70007F916F915F914F913F912F910F900BBE8C
:101C80000F900FBE0F901F90189580913402E8E6D8
:101C9000F2E0E4919FEF90933402E230E9F040F4F7
:101CA000EE2389F0E13091F060E00E94F901DACF93
:101CB000E43049F110F1E530B9F7909173009D7F60
:101CC00090937300F1CF10926E00EECF90916F0061
:101CD0009D7F90936F00E8CF909170009D7F9093CF
:101CE000700091E09093B0009091B100987F946063
:101CF0009093B1001092B300D7CF909171009D7F67
:101D000090937100D1CF909172009D7F909372005B
:101D1000CBCFCF93DF93CDB7DEB764970FB6F894F0
:101D2000DEBF0FBECDBF789484B5826084BD84B51C
:101D3000816084BD85B5826085BD85B5816085BDC6
:101D400080916E00816080936E001092810080917E
:101D50008100826080938100809181008160809306
:101D60008100809180008160809380008091B1002B
:101D700084608093B1008091B00081608093B00056
:101D800080919100826080939100809191008160A8
:101D90008093910080919000816080939000809169
:101DA000A10082608093A1008091A1008160809356
:101DB000A1008091A00081608093A000809121010A
:101DC00082608093210180912101816080932101B3
:101DD0008091200181608093200180917A0084604D
:101DE00080937A0080917A00826080937A0080915B
:101DF0007A00816080937A0080917A008068809375
:101E00007A001092C10061E089E10E94EC0261E079
:101E100088E10E94EC0261E087E10E94EC0210E0A0
:101E200000E08091F8049091F904081719072CF448
:101E300041E06CE0C8010E9451028091F804909149
:101E4000F904081719072CF44AE06AE0C8010E9457
:101E50005102C8010E9495020F5F1F4F0830110503
:101E600001F761E081E30E94EC0261E082E30E94FD
:101E7000EC0282E00E94C40A60E080E30E94EC026F
:101E800060E08FE20E94EC0261E08AE10E94EC02D5
:101E900061E086E20E94EC0261E085E20E94EC02D1
:101EA00061E084E20E94EC0261E083E20E94EC02C5
:101EB00061E082E20E94EC0261E081E20E94EC02B9
:101EC00061E08CE00E94EC0261E08BE00E94EC0299
:101ED00061E08AE00E94EC020E94DC0B0E94130C7D
:101EE00080917804882309F4FCC5809177048823C5
:101EF00021F080917604882331F180917504882344
:101F000009F488C086E094E00E94A2068823D9F0F4
:101F1000893609F077C08091050490E001968370BE
:101F20009927809305040E94A3090E94870982E0F3
:101F300090E00E94B8080E94740B64E670E080E0B4
:101F400090E00E949A050E9458080E941B09809107
:101F50007704882309F44EC08091760481114AC029
:101F60000E94CC05009121031091220320912303AC
:101F7000309124036B017C01C01AD10AE20AF30AF2
:101F800040903002509031026090320270903302E3
:101F9000C414D504E604F70408F48FC01092770443
:101FA0000E9442080E944A0884E090E00E94B8081B
:101FB0000E94BC0A8EEE92E00E940E0A60ED77E06D
:101FC00080E090E00E949A050E94DC0B81E0809303
:101FD000780480910A05982F946090930A058C608C
:101FE0000E94B60A8FE992E00E940E0A0E94740BCA
:101FF0000E94580880E090E0892B09F46FCF0E947E
:1020000000006CCF8A3609F08ECF8091050490E0F5
:10201000039685CF86E993E00E94A2068823C9F043
:102020008F36C1F580919503823090F58F5F809354
:1020300095030E94870982E090E00E94B8080E9400
:1020400058080E94740B68EC70E080E090E00E94F9
:102050009A0586E293E00E94A206882309F473CFD2
:10206000803711F5809125038230E0F48F5F8093F3
:1020700025030E94870982E090E00E94B8080E9430
:1020800058080E94740B68EC70E080E090E059CF33
:1020900082E0CDCF8B36E9F680919503882349F213
:1020A0008150C5CF82E0E3CF8C3609F04CCF8091D0
:1020B00025038823F1F28150DACFC701B6010E94CF
:1020C0004D174B015C01C301B2010E944D172B015A
:1020D0003C0120E030E040E85EE30E94AE179B0147
:1020E000AC01C501B4010E94481787FFF7C01092E8
:1020F000200360E080E00E94650B88E0E5E3F2E009
:10210000DE01119601900D928A95E1F780912003EE
:1021100090E0880F991F21E030E02C0F3D1F820FC7
:10212000931FFC01808191810E940E0A85EE92E04E
:102130000E940E0A60E08CE00E94650B6091300204
:102140007091310280913202909133026C197D09B5
:102150008E099F0997FF03C060E070E0CB0120E685
:102160003AEE40E050E00E94ED16290128EE33E0FF
:1021700040E050E00E94ED1649018901C2010E9431
:10218000770D8DE992E00E940E0A0A30110524F4C1
:102190008FEF92E00E940E0AC4010E94770D61E069
:1021A00080E00E94650BC701B60124E0660F771F2F
:1021B000881F991F2A95D1F7209130023091310262
:1021C00040913202509133020E94ED168901F12CA8
:1021D000E12C6FE5E016F1060CF46FEF41E08AEFB9
:1021E00094E00E94630AFFEFEF1AFF0A20E1E21673
:1021F000F10479F780912503811122C060E082E328
:102200000E94F90161E081E30E94F9011AEFE12ED9
:10221000FF24FA940CEFC02EDD24DA940EEF1FEFAA
:10222000580132E0A30EB11C80917604811104C0E4
:102230008091780481117AC00E9442080E944A0865
:1022400080912503813011F561E082E30E94F9015C
:1022500060E081E30E94F901EAEFEE2EFF24FA9498
:10226000FCEFCF2EDD24DA940EEF1FEF580192E041
:10227000A90EB11C80917604811104C0809178046C
:1022800081118DC10E9442080E944A088091250355
:10229000823009F0AFCE61E082E30E94F90161E093
:1022A00081E30E94F9014AEFC42EDD24DA945CEF49
:1022B000A52EBB24BA940EEF1FEF2801F2E04F0EBB
:1022C000511C80917604811104C0809178048111A1
:1022D00018C30E9442080E944A088CCE20E030E0D9
:1022E00040E05FE3C301B2010E94AE179B01AC0165
:1022F000C501B4010E94481787FF04C081E08093A4
:102300002003F7CE20E030E040E45FE3C301B201F8
:102310000E94AE179B01AC01C501B4010E94481791
:1023200087FF02C082E0EBCF83E0E9CF312C212C84
:1023300080917604811180CF80917804882309F4FC
:102340007BCF21E0A101B50187E090E00E94BD02B2
:10235000410183E0881A910821E0A401B80187E0D7
:1023600090E00E94BD02F1013697FC87EB8721E0E7
:10237000AF01B60187E090E00E94BD0291012950B3
:1023800031093A87298721E049855A85B70187E0D5
:1023900090E00E94BD0221E0A101B50186E090E03D
:1023A0000E94BD0221E0A401B80186E090E00E94F5
:1023B000BD0221E04B855C85B60186E090E00E947D
:1023C000BD0221E049855A85B70186E090E00E9470
:1023D000BD02A7E06A2E712C6218730821E0A301E8
:1023E000B50190E080E00E94BD02B4E04B2E512C7C
:1023F0004218530821E0A201B80190E080E00E9459
:10240000BD0281E090E0821993099E878D8721E0CB
:10241000AC01B60190E080E00E94BD02EEEFFFEF5C
:10242000E219F309F88BEF8721E0AF01B70190E0E3
:1024300080E00E94BD0221E0A301B50181E090E0AF
:102440000E94BD0221E0A201B80181E090E00E945B
:10245000BD0221E04D855E85B60181E090E00E94DD
:10246000BD0221E04F855889B70181E090E00E94CC
:10247000BD0260E570E080E090E00E943B0D8823A3
:1024800009F4DACE20E0A101B50187E090E00E94D6
:10249000BD0220E0A401B80187E090E00E94BD02E7
:1024A00020E04B855C85B60187E090E00E94BD028C
:1024B00020E049855A85B70187E090E00E94BD027F
:1024C00020E0A101B50186E090E00E94BD0220E07D
:1024D000A401B80186E090E00E94BD0220E04B8597
:1024E0005C85B60186E090E00E94BD0220E049854F
:1024F0005A85B70186E090E00E94BD0220E0A3016A
:10250000B50190E080E00E94BD0220E0A201B80188
:1025100090E080E00E94BD0220E04D855E85B6011E
:1025200090E080E00E94BD0220E04F855889B7010D
:1025300090E080E00E94BD0220E0A301B50181E0AF
:1025400090E00E94BD0220E0A201B80181E090E08D
:102550000E94BD0220E04D855E85B60181E090E0DD
:102560000E94BD0220E04F855889B70181E090E0CC
:102570000E94BD02FFEF2F1A3F0A28E02216310405
:1025800009F0D6CE0F5F1F4F3FEFC31AD30A8FEF6C
:10259000E81AF80A0630110509F042CE51CE312C66
:1025A000212C8091760481116DCE8091780488234E
:1025B00009F468CE21E0A101B50187E090E00E9416
:1025C000BD024101E3E08E1A910821E0A401B801A7
:1025D00087E090E00E94BD029101265031093A87C0
:1025E000298721E049855A85B60187E090E00E945D
:1025F000BD02C10109979C878B8721E0AC01B7011F
:1026000087E090E00E94BD0221E0A101B50186E0D3
:1026100090E00E94BD0221E0A401B80186E090E0B4
:102620000E94BD0221E049855A85B60186E090E00E
:102630000E94BD0221E04B855C85B70186E090E0F9
:102640000E94BD0221E0A101B50185E090E00E9459
:10265000BD0221E0A401B80185E090E00E94BD0226
:1026600021E049855A85B60185E090E00E94BD02CF
:1026700021E04B855C85B70185E090E00E94BD02BA
:1026800067E0662E712C6218730821E0A301B50182
:1026900090E080E00E94BD0274E0472E512C421869
:1026A000530821E0A201B80190E080E00E94BD0241
:1026B000E1E0F0E0E219F309F88BEF8721E0AF01E8
:1026C000B60190E080E00E94BD022EEF3FEF22199C
:1026D00033093E872D8721E04D855E85B70190E067
:1026E00080E00E94BD0221E0A301B50181E090E0FD
:1026F0000E94BD0221E0A201B80181E090E00E94A9
:10270000BD0221E04F855889B60181E090E00E942A
:10271000BD0221E04D855E85B70181E090E00E9419
:10272000BD0221E0A301B50182E090E00E94BD025C
:1027300021E0A201B80182E090E00E94BD0221E008
:102740004F855889B60182E090E00E94BD0221E0E9
:102750004D855E85B70182E090E00E94BD0262E394
:1027600070E080E090E00E943B0D882309F48ACD60
:1027700020E0A101B50187E090E00E94BD0220E0C9
:10278000A401B80187E090E00E94BD0220E04985E5
:102790005A85B60187E090E00E94BD0220E04B859B
:1027A0005C85B70187E090E00E94BD0220E0A101B6
:1027B000B50186E090E00E94BD0220E0A401B801CE
:1027C00086E090E00E94BD0220E049855A85B6016E
:1027D00086E090E00E94BD0220E04B855C85B70159
:1027E00086E090E00E94BD0220E0A101B50185E0F5
:1027F00090E00E94BD0220E0A401B80185E090E0D5
:102800000E94BD0220E049855A85B60185E090E02E
:102810000E94BD0220E04B855C85B70185E090E019
:102820000E94BD0220E0A301B50190E080E00E947B
:10283000BD0220E0A201B80190E080E00E94BD024C
:1028400020E04F855889B60190E080E00E94BD02EB
:1028500020E04D855E85B70190E080E00E94BD02DA
:1028600020E0A301B50181E090E00E94BD0220E0DC
:10287000A201B80181E090E00E94BD0220E04F85F6
:102880005889B60181E090E00E94BD0220E04D85AC
:102890005E85B70181E090E00E94BD0220E0A301C7
:1028A000B50182E090E00E94BD0220E0A201B801E3
:1028B00082E090E00E94BD0220E04F855889B60179
:1028C00082E090E00E94BD0220E04D855E85B70168
:1028D00082E090E00E94BD023FEF231A330A88E0B5
:1028E0002816310409F05DCE0F5F1F4F9FEFC91A04
:1028F000D90AEFEFEE1AFE0A0630110509F0B6CC40
:10290000C5CC2EEF222E33243A9421E030E03A8BCE
:10291000298B84E090E09A878987E7EFFFEFFC87B7
:10292000EB872AEF3FEF388B2F878DEF9FEF9E8746
:102930008D8737E0632E712CE7E0F0E0E619F709A8
:10294000FC8BEB8B809176048111C3CC8091780451
:10295000882309F4BECCF12CE12C97E0892E912C30
:102960008E189F0821E04B895C89B201C4010E9446
:10297000BD0221E04D855E85B801C4010E94BD0203
:1029800021E04F855889B501C4010E94BD0221E0B4
:102990004B855C85B601C4010E94BD0221E0A30104
:1029A000B201C7010E94BD0221E049855A85B801E4
:1029B000C7010E94BD0221E049895A89B501C701BA
:1029C0000E94BD0221E0A101B601C7010E94BD0223
:1029D000FFEFEF1AFF0A24E0E216F10409F0BDCF81
:1029E0006EE170E080E090E00E943B0D882309F4E6
:1029F00070CCF12CE12C87E0882E912C8E189F084A
:102A000020E04B895C89B201C4010E94BD0220E034
:102A10004D855E85B801C4010E94BD0220E04F854E
:102A20005889B501C4010E94BD0220E04B855C8538
:102A3000B601C4010E94BD0220E0A301B201C7019A
:102A40000E94BD0220E049855A85B801C7010E9455
:102A5000BD0220E049895A89B501C7010E94BD0223
:102A600020E0A101B601C7010E94BD023FEFE31AB9
:102A7000F30A84E0E816F10409F0BDCF91E0691A89
:102A80007108ED85FE853196FE87ED872F853889A3
:102A90002F5F3F4F388B2F878B859C8501969C87B6
:102AA0008B87E985FA853197FA87E98729893A89F9
:102AB000215031093A8B298B31E0231A31088FEFED
:102AC0006816780609F038CF0F5F1F4F9FEFA91ADD
:102AD000B90AEFEFCE1ADE0A0630110509F0EDCB88
:102AE00089CA0E94070986CACF93DF93C3E3D0E067
:102AF000D093F304C093F20484E390E09093F50440
:102B00008093F40485E390E09093F7048093F604B7
:102B100088E090E09093F9048093F80461E083E307
:102B20000E94EC0261E08091F4040E94EC0261E0FA
:102B30008091F6040E94EC0261E08091F6040E940C
:102B4000F901D093F304C093F204E2EBF4E01192A4
:102B500084E0E23FF807D9F7D0E0C0E08091F804C4
:102B60009091F904C817D9073CF540E06FE0CE0119
:102B70000E9451028091F8049091F904C817D90776
:102B80002CF447E06BE0CE010E94510240E069E086
:102B9000CE010E945102CE010E9495028091F8045C
:102BA0009091F904C817D9072CF440E06CE0CE01ED
:102BB0000E9451022196D2CF1092FD041092FC0483
:102BC0008BE492E09093FB048093FA0488E2809374
:102BD000FE048FEF8093FF0489E2809300058AE270
:102BE000809301058BE2809302058CE280930305BC
:102BF0008DE280930405109205051092060510924F
:102C00000705109208051092090581E00E94C40A88
:102C10001092980310929C0310929B0310929D03B4
:102C200081E492E09093970380939603E2EBF3E0C4
:102C30001082148213821582369683E0EE3EF807E6
:102C4000B9F78CE292E09093F9038093F8038BE25A
:102C500092E09093FB038093FA0382E08093FC035D
:102C600081E08093FD038EE292E09093F7038093DE
:102C7000F6038AE090E09093FF038093FE0384EFD5
:102C800091E0909301048093000410920404109248
:102C900003041092F2031092F3031092F4031092C3
:102CA000F503109202041092280310922C03109244
:102CB0002B0310922D0381E492E0909327038093DD
:102CC0002603E2E4F3E08EE793E01082148213829D
:102CD000158236968E179F07C1F787E292E0909390
:102CE00089038093880386E292E090938B0380931C
:102CF0008A0382E080938C0381E080938D0389E2D4
:102D000092E090938703809386038AE090E090930B
:102D10008F0380938E0384EF91E0909391038093CF
:102D200090031092940310929303109282031092D6
:102D300083031092840310928503109292031092E1
:102D4000080410920C0410920B0410920D0481E4FC
:102D500092E09093070480930604E2E2F4E010828C
:102D6000148213821582369684E0EE35F807B9F79F
:102D700082E292E0909369048093680481E292E099
:102D800090936B0480936A0482E080936C0481E0EA
:102D900080936D0484E292E09093670480936604CC
:102DA0008AE090E090936F0480936E0484EF91E04A
:102DB00090937104809370041092740410927304C1
:102DC00010926204109263041092640410926504DD
:102DD00010927204DF91CF910895052E97FB1EF497
:102DE00000940E94041757FD07D00E94171707FC94
:102DF00003D04EF40C9404175095409530952195CE
:102E00003F4F4F4F5F4F0895909580957095619516
:102E10007F4F8F4F9F4F08950E943917A59F900DA8
:102E2000B49F900DA49F800D911D11240895A1E2DF
:102E30001A2EAA1BBB1BFD010DC0AA1FBB1FEE1F34
:102E4000FF1FA217B307E407F50720F0A21BB30B7F
:102E5000E40BF50B661F771F881F991F1A9469F7FB
:102E600060957095809590959B01AC01BD01CF0157
:102E70000895A29FB001B39FC001A39F700D811D53
:102E80001124911DB29F700D811D1124911D089573
:102E90000E948A1708F481E00895E89409C097FB1E
:102EA0003EF490958095709561957F4F8F4F9F4F21
:102EB0009923A9F0F92F96E9BB279395F695879565
:102EC00077956795B795F111F8CFFAF4BB0F11F428
:102ED00060FF1BC06F5F7F4F8F4F9F4F16C08823CF
:102EE00011F096E911C0772321F09EE8872F762F05
:102EF00005C0662371F096E8862F70E060E02AF046
:102F00009A95660F771F881FDAF7880F9695879531
:102F100097F90895990F0008550FAA0BE0E8FEEF06
:102F200016161706E807F907C0F012161306E4078D
:102F3000F50798F0621B730B840B950B39F40A2686
:102F400061F0232B242B252B21F408950A2609F464
:102F5000A140A6958FEF811D811D08950E94C11784
:102F60000C9432180E94241838F00E942B1820F07C
:102F7000952311F00C941B180C94211811240C9417
:102F800066180E94431870F3959FC1F3950F50E0A7
:102F9000551F629FF001729FBB27F00DB11D639F0B
:102FA000AA27F00DB11DAA1F649F6627B00DA11DB1
:102FB000661F829F2227B00DA11D621F739FB00D57
:102FC000A11D621F839FA00D611D221F749F3327C7
:102FD000A00D611D231F849F600D211D822F762F60
:102FE0006A2F11249F5750409AF0F1F088234AF03D
:102FF000EE0FFF1FBB1F661F771F881F91505040A9
:10300000A9F79E3F510580F00C941B180C9466188C
:103010005F3FE4F3983ED4F3869577956795B7952F
:10302000F795E7959F5FC1F7FE2B880F911D969549
:10303000879597F9089597F99F6780E870E060E0B9
:1030400008959FEF80EC089500240A941616170641
:1030500018060906089500240A9412161306140689
:1030600005060895092E0394000C11F4882352F0EC
:10307000BB0F40F4BF2B11F460FF04C06F5F7F4FA4
:103080008F4F9F4F089557FD9058440F551F59F08B
:103090005F3F71F04795880F97FB991F61F09F3F45
:1030A00079F087950895121613061406551FF2CF6E
:1030B0004695F1DF08C0161617061806991FF1CFBE
:1030C00086957105610508940895E894BB276627E5
:1030D0007727CB0197F90895EE0FFF1F881F8BBF4D
:0C30E0000790F691E02D1994F894FFCFB2
:1030EC000609122444304080050A14A8140A05006D
:1030FC001038284444443800007F3E1C08081C004B
:10310C0001151413696A1D1C1B706C201F1E6F6B3C
:10311C0060EA0000FF0103B5020B0314030000007A
:10312C000097069B069F0600000000710DD8053F16
:10313C00083E084D4F444F3A20004E4F524D414CE3
:10314C002020202020004352495354414C45532009
:10315C00200045434F4C4F4749434F2020005052CD
:10316C004553494F4E2020202000543A0042414AFA
:10317C0020004D45442000414C542000413A004C65
:10318C004953544F20502F20494E49434941520036
:10319C004D4F444F204C415641444F00434F4E46F7
:1031AC004947204D414E55414C004C4156415641EA
:1031BC004A494C4C415300554C54524100504155D6
:1031CC0053412E2E2E2020202020202020004C4148
:1031DC005641444F205445524D494E41444F0030C6
:1031EC00005052454C415641444F00454E4A5541C2
:0C31FC004755450053454341444F000037
:00000001FF
